:100000000C94A5060C94DD060C94DD060C94DD061C
:100010000C94DD060C94DD060C94DD060C94DD06D4
:100020000C94DD060C94DD060C9468290C943C2A93
:100030000C944C240C94DD060C94DD060C94DD0627
:100040000C94DD060C94DD060C94DD060C94DD06A4
:100050000C94DD060C94D3240C94DD060C94DD0680
:100060000C94DD060C94DD060C94DD060C94DD0684
:100070000C94DD060C94DD060C94DD060C94DD0674
:100080000C94DD060C94DD060C94DD060C94DD0664
:100090000C94DD060C94DD060C94DD060C94DD0654
:1000A0000C94DD060C94DD060C94DD0635001E0074
:1000B0001F002000210022002E006D002D002300D3
:1000C00024002500260027002A002B0014001A0017
:1000D0000800150017002F00310030001C00180028
:1000E0000C00120013002800296F040016000700FE
:1000F00009000A00680069006A000B000D000E008C
:100100000F0033003400E1001D001B000600190041
:1001100005006B0052006C00110010003600370023
:100120003800E50091009000E000E200E30001519A
:10013000500051004F002C0001512C41E700E60017
:100140006E0001003A003B003C003D003E004400D0
:10015000010045003F0040004100420043004C00C8
:1001600001000100A90001000100010001000100DF
:100170000100010001000100010001000100010077
:10018000AC00AA00AB0001000100C35C010001004B
:100190005000510052004F00010001000100010019
:1001A0000100010001000100010001000F510100E8
:1001B0000100010001000100010001000100010037
:1001C000010001000100010001000100AE0001007A
:1001D000AE000100005C010001000100010001000F
:1001E0000100010001000100010001000100010007
:1001F00001000100010001000100010001000100F7
:1002000001000100010001000100010001000100E6
:1002100001000100010001000100010001000100D6
:100970000100010001000000000000000000000074
:100980000000000000000000000000000000000067
:100990000000000000000000000000000000000057
:1009A0000000000000000000000000000000000047
:1009B0000000000000000000000000000000000037
:1009C00000000000000000000000005C00000000CB
:1009D0000000000000000000000000000000000017
:1009E0000000000000000000000000000000010006
:1009F00001000100010001000100010001000100EF
:100A000001000100010001000100010000047F3F1E
:100A10001F643214643214783C1E1E140A0522230B
:100A2000252628292A2C2D2F3032333536383A3BCB
:100A30003D3E4042434547494A4C4E50515355571D
:100A4000595A5C5E6062646668696B6D6F7173753C
:100A500077797B7D7F81838587898A8C8E9092943C
:100A600096989A9C9E9FA1A3A5A7A8AAACAEAFB149
:100A7000B3B4B6B8B9BBBCBEBFC1C2C3C5C6C7C993
:100A8000CACBCCCDCED0D1D2D2D3D4D5D6D7D7D84D
:100A9000D9D9DADADBDBDBDCDCDCDCDCDDDDDDDD9F
:100AA000DCDCDCDCDCDBDBDBDADAD9D9D8D7D7D6A7
:100AB000D5D4D3D2D2D1D0CECDCCCBCAC9C7C6C55E
:100AC000C3C2C1BFBEBCBBB9B8B6B4B3B1AFAEACA4
:100AD000AAA8A7A5A3A19F9E9C9A98969492908E4F
:100AE0008C8A89878583817F7D7B79777573716F28
:100AF0006D6B6968666462605E5C5A595755535104
:100B0000504E4C4A4947454342403E3D3B3A3836B9
:100B1000353332302F2D2C2A292826252322FFAACF
:100B20007F554000010101010101010101020202A2
:100B30000202020202020303030303030303040489
:100B40000404040404050505050506060606060753
:100B50000707070708080808090909090A0A0A0B0C
:100B60000B0B0C0C0C0D0D0D0E0E0E0F0F0F1010AD
:100B70001111111212131314141515161617171834
:100B80001819191A1A1B1B1C1D1D1E1E1F2020219F
:100B90002222232424252626272829292A2B2C2DE6
:100BA0002D2E2F30313232333435363738393A3B07
:100BB0003C3D3E3F404142434445464748494A4CFC
:100BC0004D4E4F50515354555658595A5B5D5E5FC8
:100BD000616264656668696B6C6D6F70727375775E
:100BE000787A7B7D7E8082838587888A8C8E8F91C0
:100BF000939596989A9C9EA0A2A3A5A7A9ABADAFEA
:100C0000B1B3B5B7BABCBEC0C2C4C6C9CBCDCFD1D3
:100C1000D4D6D8DBDDDFE2E4E7E9EBEEF0F3F5F87C
:100C2000FAFDFF0A03580044003700350000000CAD
:100C3000037800690075006400690000000403097E
:100C40000409023B00020100A0FA090400000103AC
:100C50000101000921110100012240000705810363
:100C6000080001090401000103000000092111012D
:100C70000001227B0007058203200001120100020F
:100C800000000008447875750100010200010501AB
:100C90000902A10185020901A1000509190129081C
:100CA00015002501950875018102050109300931FA
:100CB0001581257F95027508810609381581257FE4
:100CC000950175088106050C0A38021581257F9566
:100CD0000175088106C0C005010980A101850319BD
:100CE000012AB700150126B700950175108100C0D3
:100CF000050C0901A101850419012AA0021501268C
:100D0000A002950175108100C005010906A1010529
:100D10000719E029E715002501950875018102955D
:100D200001750881010507190029FF150026FF003C
:100D300095067508810005081901290595057501B5
:100D40009102950175039101C00011241FBECFEFE0
:100D5000DAE0DEBFCDBF04B603FE18C08091D20238
:100D60009091D302A091D402B091D5028730904BDC
:100D7000A740B04B59F41092D2021092D3021092B5
:100D8000D4021092D502E0E0F8E3099511E0A0E06A
:100D9000B1E0E0E7FAE502C005900D92A63CB1078C
:100DA000D9F722E0A6ECB1E001C01D92A23DB20746
:100DB000E1F70E9422160C94202D0C9400002A9A30
:100DC0000895229A0E94DF0608958F9A0895879ABF
:100DD0000E94E50608958C980895849A0E94EB0677
:100DE00008950E94E1060E94E7060E94ED060E9417
:100DF000C514089581E0089581E008950E94FC06DD
:100E0000089508950E9401070895A5E0B0E0EBE081
:100E1000F7E00C94812C49835A833091CD0189816C
:100E20009A81311119C0662399F0222389F00E941A
:100E3000030D182F682F89819A810E94DF0C698128
:100E40007A81812F0E9486132596E3E00C949D2CD5
:100E50000E94F10C182FF3CF0E94030D69817A8153
:100E6000F1CFFC01262F4081518162817381848101
:100E70000E940507089581E00895CF93DF93EC0168
:100E800060E00E943107BE010E940207DF91CF910E
:100E900008950E94F10608950E94C71408950895C8
:100EA0000E94AA0B0E944F072FEF84E39CE0215081
:100EB00080409040E1F700C0000008950E94500774
:100EC0000E94F72408950E9450070E941B25089550
:100ED0000F931F93CF93DF938C0161E00E94310742
:100EE000EC01B8010E94FE06811106C080E0DF918E
:100EF000CF911F910F910895B801CE010E94F92260
:100F00008823A1F3B801CE010E94B11F882371F399
:100F1000B801CE010E946B22882341F3B801CE01B3
:100F20000E94BD1E882311F3F8018281882361F09D
:100F3000CB35FDE5DF0701F158F4C115ECE5DE071F
:100F400091F0CF3DDC4591F0C8010E94FA06CFCF69
:100F5000CD358DE5D80769F090F0C83ADD45A1F7A9
:100F60000E946307C3CF0E945E07C0CF0E94BD11DD
:100F7000F7CF0E94FB10E8CF0E940511E5CF0E9439
:100F80000911E2CF0E9428240E94DF0708950E94E1
:100F9000E3070E942D24089508950E94CC07089528
:100FA00081E008950E94D00708950895CF93C82F37
:100FB0000E94CD078C2F0E94D207CF91089580E028
:100FC0000E94D60708950E9455230E94D6070895CF
:100FD000CF930E945523C82F8091C8018C1779F0B8
:100FE000C093C8010E94B8246093C9017093CA01DC
:100FF0008093CB019093CC018C2F0E94D607CF9188
:101000000895ABE0B0E0E7E0F8E00C94822C4F8369
:10101000588769877A878B8761110E9446101E82E4
:101020001D8285E0FE013796DE01119601900D923A
:101030008A95E1F78C819D81892B61F449815A81E0
:101040006B817C818D819E810E946F0F2B96E2E0E7
:101050000C949E2C89819A8189238F3F79F3CE014C
:1010600001960E943B078111E9CFF0CFFC018081FE
:1010700091810E94350D0895CF93C82F8823C9F020
:101080008238C9F40E94552381FD13C089E30E9470
:10109000FE0F0E9467102FEF87EE93E021508040F3
:1010A0009040E1F700C0000089E30E9406100E9412
:1010B0006710CF9108958338A1F40E94552380FDD5
:1010C000F8CF83E50E94FE0F0E9467102FEF81EE9C
:1010D00094E0215080409040E1F700C0000083E59B
:1010E000E4CF8438A1F40E94552382FDE2CF87E447
:1010F0000E94FE0F0E9467102FEF81EE94E02150B6
:1011000080409040E1F700C0000087E4CECF8CEF34
:101110008C0F813AB8F48C2F0E94B0218111C9CF75
:101120006C2F80910001909101010E94B9238823C6
:1011300029F08C2F0E9406100E9467108C2F0E94AD
:10114000FE0FB5CF80E28C0F883048F4C77081E085
:1011500001C0880FCA95EAF70E942910A8CFEBE5D5
:10116000EC0FE33040F4F0E0E85AFE4F808190E06D
:101170000E947B239ECFE8E5EC0FE73150F4F0E0CE
:10118000EE0FFF1FE65DFE4F808191810E9491234B
:1011900090CFCD3E08F48DCF8C2F0E94A6160E94D2
:1011A000791787CF882309F455C0823879F40E94D3
:1011B000552381FF4FC089E30E94FE0F0E946710F4
:1011C00089E30E9406100E9467100895833859F43D
:1011D0000E94552380FF3EC083E50E94FE0F0E94BF
:1011E000671083E5EECF843859F40E94552382FFBF
:1011F00031C087E40E94FE0F0E94671087E4E1CFB0
:101200009CEF980F913AE8F290E2980F983050F4E2
:10121000877091E001C0990F8A95EAF7892F0E94A3
:101220002F10D1CF9BE5980F933028F490E080E009
:101230000E947B23089598E5980F973128F490E059
:1012400080E00E94912308958D3E20F00E940017B7
:101250000E94791708951F93CF93DF93182FEB0106
:101260000E943C08209739F4812F0E94D208DF9118
:10127000CF911F9108958FE99FE00197F1F700C08A
:1012800000002197EFCF70E060E0893311F460E552
:1012900070E00E942B090895882321F00E942910F4
:1012A0000E9467100895882321F00E942F100E9449
:1012B00067100895B0E0A0E0E0E6F9E00C947B2C24
:1012C0006C01D62FC72FFC011281F580F2949FE0AC
:1012D000F9220E941F10E82E8823B9F0E12E112375
:1012E000A1F08C2F807F803421F080E28D0F883038
:1012F000D0F08091950282FF16C082E00E94CA1051
:101300000E941F1091E0E82EE926BC2EB2948FE0D7
:10131000B822FBE0FB1508F468C0EB2DF0E0EE5DB1
:10132000F24D0C943B2CE12CF0CF0C2F0F70C07FB2
:1013300011F00295007F112399F0002359F080E20B
:101340008D0F883010F0D11107C0802F0E94291016
:101350000E9467108D2F41C0802F0E943910F8CF56
:101360008D2F0E94D208002309F43FC080E28D0F28
:10137000883010F0D11104C0802F0E942F1003C0BC
:10138000802F0E943F100E9467102FC00C2F0F70FB
:10139000C07FC03211F00295007FDD2381F0D13093
:1013A00009F463C0112309F46DC0FF2009F463C080
:1013B000F601858180FFCECF8F7085835CC08091E0
:1013C000950282FD33C0112359F0002329F0802FAC
:1013D0000E9429100E94671080E00E943C0805C00E
:1013E00080E00E94D2080111C7CFEB2DE850FF0B1F
:1013F000349720F40E9455230E94D607EE2089F0EE
:101400000E941B1080FD0DC0F60112820E94151073
:101410000E943D0CC6010E946A0B0E9415100E949A
:101420004D0CCDB7DEB7E9E00C94972C112389F071
:10143000F11006C00E944910802B0E944C09D5CFA4
:1014400021E0F212F7CF0E944910802B0E94501029
:10145000CCCFF11006C00E945D10802F0E9453096E
:10146000C4CF31E0F31609F2F6CF112331F085E055
:101470008F1508F4BACF802FE0CF94E09F1508F4C1
:10148000B4CFEBCFFF2049F3D93349F4FFEF27EE78
:1014900033E0F15020403040E1F700C000008D2FD4
:1014A0000E94D208A2CF8C2F86958695837069F012
:1014B000813009F09ACF8D2F9C2F9370111102C0AB
:1014C00090E080E00E94912390CF8D2F9C2F93700D
:1014D000111102C090E080E00E947B2386CF8D2F07
:1014E000112329F00E94A6160E9479177ECF0E9430
:1014F0000017FACF8C2F8370A1F5111176CF4D2FE5
:10150000429546954770440F440F2D2F2F7030E0C1
:10151000042E02C0220F331F0A94E2F790E080E00D
:10152000D4FF09C08FE090E002C0880F991F4A9550
:10153000E2F780959095C695C695C370822B932B44
:10154000C23049F058F4C13019F00E940B0C4DCF55
:101550000E94020C4ACF0E94140C47CF0E94FF0B3E
:1015600044CF8695112311F08C2F8170882309F4C4
:101570003CCF4D2F429546954770440F440F2D2F79
:101580002F7030E0042E02C0220F331F0A94E2F7BE
:1015900090E080E0D4FF09C08FE090E002C0880FA7
:1015A000991F4A95E2F780959095C695C695C370A8
:1015B000822B932BC23049F058F4C13019F00E94AD
:1015C000780C13CF0E946F0C10CF0E94810C0DCFAE
:1015D0000E94230C0ACFCF70112329F08C2F0E9478
:1015E0003D0C8D2F2ACF8D2F0E9453098C2F0E94E6
:1015F0004D0CFBCED23F51F160F4D03FB9F0D13F5A
:1016000081F0112309F449C0F110A4CE8C2F8F7101
:1016100021C0D33F11F1D43FA1F78091950282FD03
:1016200026C08C2F8F71112311F314C0112349F0A0
:1016300084E08F1508F4D9CE8C2F8F710E945F0C37
:10164000D4CE95E09F1508F4D0CEF6CF8C2F8F71B5
:101650001111CDCF0E943D0CC8CE112329F08C2F43
:101660008F710E94310CC1CE0E942C0CBECE112372
:1016700049F0CF718C2F0E943D0C63E08C2F0E94AB
:10168000AC10B3CE81E00E94CA10E1E0EF1508F083
:10169000ACCE82E00E94CA10A8CEF110F5CE8C2FFD
:1016A0008F71A5CF0F931F93CF93DF93EC016881C8
:1016B00079818A810E94400D8C010E948A0C0E94CF
:1016C000FE0BB801CE010E945A09DF91CF911F9104
:1016D0000F910895CF93DF93EC018B819C81892B2F
:1016E00029F08881998189238F3F51F4DF91CF912F
:1016F0000895CE010E94520BCE010E943D07F6CF05
:10170000CE010E9468078111F4CF0E941F10882328
:1017100069F38A81882351F38091950282FFE6CF95
:1017200082E00E94CA10E2CF90E080E00E947B231A
:1017300090E080E00E9491230E9446100E94671072
:101740000E9495170E94791708950E940E100E941A
:10175000940B08950E9436100E94A50B089592954F
:101760009F70963091F058F4925F9F70923058F4C9
:10177000803F19F030F4883E30F481E008959A5F9C
:10178000F4CF843FD1F380E00895883EB0F3813FE9
:10179000D1F7F3CFFC0183819481892B29F08081DB
:1017A000918189238F3F11F480E008958081918198
:1017B0000E94350D0E94AF0B0895A5E0B0E0E3EE66
:1017C000FBE00C94822C2596E2E00C949E2CA6E083
:1017D000B0E0EDEEFBE00C94822C2696E2E00C9457
:1017E0009E2C08950E94F10B08950E94F20B909395
:1017F000F9018093F8010E94940B089508950E94C6
:10180000F50B08952091F8013091F901822B932B6B
:101810000E94F50B08952091F8013091F90182237F
:1018200093230E94F50B08952091F8013091F9015E
:10183000822793270E94F50B08950E94F10B0895CB
:101840000E941D0C08950E94200C9093F701809334
:10185000F6010E94940B089590E080E00E94230C12
:10186000089521E030E0A90102C0440F551F8A9578
:10187000E2F7CA010E94230C089521E030E002C083
:10188000220F331F8A95E2F78091F6019091F701BC
:10189000822B932B0E94230C089521E030E002C09C
:1018A000220F331F8A95E2F7209530958091F6013B
:1018B0009091F701822393230E94230C089521E045
:1018C00030E002C0220F331F8A95E2F78091F601C3
:1018D0009091F701822793270E94230C089520916D
:1018E000F6013091F701822B932B0E94230C08956F
:1018F0002091F6013091F701822393230E94230C5B
:1019000008952091F6013091F701822793270E94D4
:10191000230C08950895262F277091E001C0990F98
:101920002A95EAF723E0769567952A95E1F7660F01
:10193000771F660F771FFA01E60FF71F50E040E0B0
:10194000682F70E08191DF0111979B01042E02C086
:10195000369527950A94E2F72170219528272923A7
:1019600028272C934F5F5F4F4430510559F7089556
:10197000A82FA77023E0969587952A95E1F7880F01
:10198000991F880F991FFB01E80FF91F50E040E0F5
:1019900080E0219130E00A2E02C0369527950A9406
:1019A000E2F721703327042E01C0220F0A94EAF7D0
:1019B000822B4F5F5F4F4430510559F70895262F12
:1019C000953070F48F3060F4682F70E08FE0989F4E
:1019D000600D711D11244EEC51E0822F0E948B0C82
:1019E0000895292F953068F48F3058F490E06EEC0C
:1019F00071E03FE0239F800D911D11240E94B80CDF
:101A0000089580E00895B0E0A0E0E9E0FDE00C94E6
:101A10007B2C7C010091F6011091F7018091F80177
:101A20009091F901082B192BCFE0D0E0CC24C3947E
:101A3000D12CBC2EC6010C2E02C0880F991F0A940F
:101A4000E2F780239123892B49F4219790F7B12C59
:101A50008B2DCDB7DEB7E9E00C94972CB7018C2F16
:101A60000E94A113019789F3F3CFCF93DF93EC0189
:101A70000E94030DBE010E94A113DF91CF91089532
:101A80001F93CF93DF93EB019091CD01992339F010
:101A9000CB010E94350DDF91CF911F9108958823CE
:101AA00069F0CB010E94030D182F682FCE010E9410
:101AB000DF0CBE01812F0E94A113EDCFCB010E944C
:101AC000F10C182FF6CF1F93CF93DF93C091FA013B
:101AD00016E08091FB018C1304C0DF91CF911F9120
:101AE0000895D0E01C9FF0011D9FF00D1124E450DB
:101AF000FE4F4081518162817381848195810E9472
:101B0000E70B2196C770E5CF40912C0250912D0232
:101B100060912E0270912F028091300290913102DB
:101B20000E94E70B08951F93CF93DF9380913102BA
:101B3000807F09F049C080912E02882309F444C0B7
:101B40008091FA01C091FB0160912C0270912D02ED
:101B5000A0912F02B0913002D62FD72316E0C817DC
:101B600099F190E0109711F0DF3F19F4019687701A
:101B7000F6CF189F9001199F300D1124F901E45000
:101B8000FE4F41814713F2CF40814613EFCF428190
:101B90004111ECCF438154814A1B5B0B483C5105FA
:101BA00028F7809131028F70806180933102F901B2
:101BB000EF5FFD4F80818F70806180838CE292E0C7
:101BC0000E946A0B0E94630DDF91CF911F910895CF
:101BD000A1E1B0E0EEEEFDE00C947A2C8C0185E002
:101BE000F801DE011D9601900D928A95E1F7F8014A
:101BF000E2808CE2C82E82E0D82E60912F02709194
:101C000030026115710509F44EC190912C022091AA
:101C10002D02892F82238F3F09F445C140815181D4
:101C2000A380B480F0902E02F501E61BF70BFF2095
:101C300009F4EAC080913102382F307FE83CF10589
:101C400008F0A3C031116DC0FE2C251316C09413EB
:101C500014C0E11012C08F708061809331020E9425
:101C6000840DC6010E946A0B80913102F8018583C0
:101C70008F2D6196EAE00C94962CA114B10429F002
:101C8000842F85238F3F09F027C180E0F82FF17062
:101C9000DF2E80FF3CC08091FA012091FB0136E0ED
:101CA000821315C04D875E878D859E850E94350DF8
:101CB000292F22952F702230F0F0243018F59F70D4
:101CC000F1F0F8019581907FD1F4D12C1EC090E005
:101CD000389FF001399FF00D1124E450FE4F6181CF
:101CE000651306C06081641303C06281E6120FC0F1
:101CF00001968770D5CF9F7011F0882331F3805EF5
:101D0000883018F3C8010E946A0BFD2CB1CFEE2079
:101D100009F4AECF80913102816080933102F12CC1
:101D2000A7CF251306C0941304C0F801EE2009F4D0
:101D300087C0C8010E94CA0B882319F1EE2009F15F
:101D400080913102803270F020912C0230912D026E
:101D500038872F831986BB86AA868C87CE01079683
:101D60000E946A0B86E0F801ACE2B2E001900D92AD
:101D70008A95E1F70E94930D0E94840DFF24F3944D
:101D800077CFC8010E946A0BF9CF311113C07A2DA9
:101D9000B98AA88A6E2D89890E94DD0B8CE292E0B7
:101DA0000E946A0B86E0F60111928A95E9F70E947B
:101DB000840DB5CF25130FC094130DC0E1100BC0D7
:101DC000F8018583C8010E946A0B86E0F601119232
:101DD0008A95E9F74DCFC8010E94CA0B882389F282
:101DE000EE2079F280913102803208F4BBCF20914D
:101DF0002C0230912D023A8329831B82BD82AC8252
:101E00008E83CE010196ACCFE83CF10508F03EC0D0
:101E1000FE2CEE2009F4B5CF25132AC0941328C058
:101E20008091310280FD1BC0982F907FC1F0F80196
:101E30008583903F31F0982F907F905F8F70892B32
:101E40008583C8010E946A0B86E0F801ACE2B2E02B
:101E500001900D928A95E1F70E94840D09CF86E0EA
:101E6000F801ACE2B2E001900D928A95E1F700CF63
:101E7000C8010E94CA0B811175CF80913102816027
:101E800080933102C8010E946A0BF2CE7A2DB98A82
:101E9000A88A6E2D89890E94DD0B86E0F6011192D9
:101EA0008A95E9F7D9CFEE2009F46BCFC8010E94DB
:101EB000CA0BF82E882309F464CF86E0F801ACE25F
:101EC000B2E001900D928A95E1F78CE292E00E94D7
:101ED00036080E94930DC0CF81E08E25D7CEACE0AE
:101EE000B0E0E5E7FFE00C94812C4F8358876987C9
:101EF0007A878B879C87CE0107960E94E80D8823FE
:101F000069F08A859B85892B39F04F815885842F0C
:101F100085238F3F09F06BC016E05FC086E0FE01AD
:101F20003796DE01119601900D928A95E1F78A8528
:101F30009B85892B89F388859F8189238F3F61F356
:101F40002091FB0130E0C9010196877099274091EB
:101F5000FA014817190671F40E94AA0B1092FB01AE
:101F60001092FA0186E0ECE2F2E0DF011D928A9520
:101F7000E9F7D2CF96E0929FD001939FB00D112444
:101F8000A450BE4FFE01319601900D929A95E1F753
:101F90008093FB010E94630DBFCF819FC00111247C
:101FA00084509E4F0E94E80D8823E9F0E091FA01E9
:101FB0001E9FF0011124E450FE4F40815181628147
:101FC0007381848195810E94E70B8091FA0190E0F2
:101FD0000196877099278093FA018091FA01909178
:101FE000FB018913DACF2C96E3E00C949D2C6985D4
:101FF0007A858B859C850E94E70B8ECF682F809118
:102000000001909101010E94EF230895682F8091B3
:102010000001909101010E94F22308958091000136
:10202000909101010E94F523089580913A028595CF
:1020300085958595089580913A02877008959091CD
:102040003A02977081E009F480E00895809145029A
:10205000089590914502892B8093450208958095BB
:10206000909145029823909345020895109245025D
:10207000089590914402892B80934402089580959D
:102080009091440298239093440208951092440240
:10209000089580913B02089508950E944C10089580
:1020A0009091950292FF08C090913B02981721F001
:1020B00080933B020E944D10089580913B0288233B
:1020C00029F010923B0280E00E944D100895CF93BA
:1020D000DF93E0910001F09101018091450280833E
:1020E000E0910001F0910101808190914402892BDF
:1020F000808390913B02992381F0E0910001F0915F
:1021000001018081892B80838091000190910101E0
:102110000E94A72381110E945D10C0910001D091FF
:10212000010148E050E062E372E0CE010E94C22C5F
:10213000892B59F088E0FE01A2E3B2E001900D92F4
:102140008A95E1F7CE010E946223DF91CF91089535
:1021500008950E94A81008959091950292FF11C0D1
:1021600098E0899F90011124622B60933A020E94AB
:102170003D0C80913A028595859585950E94A91020
:1021800008950E943D0C089510923A0280E00E944A
:10219000A910089590913A028095892380933A027C
:1021A000282F277091F4282F082E000C330B92173C
:1021B000130659F09091950292FF07C08595859579
:1021C00085950E944D0C0E94C4100895909195022F
:1021D00092FB222720F9281769F080FB92F990934F
:1021E000950280919402909195020E94371182E0AD
:1021F0000E94CA1008958091950282FB882780F979
:1022000091E089270E94E610089581E00E94E6107F
:10221000089580E00E94E61008956FEF7FEF90E050
:1022200080E00E940A2D089590E080E00E94E62C54
:1022300021E0883E9E4F09F020E0822F089582E041
:1022400090E00E94D82C089583E090E00E94D82C62
:102250000895CF9384E090E00E94D82CC82F82E2AA
:1022600090E00E94D82C982F8C2FCF910895CF9377
:10227000C92F682F84E090E00E94EC2C6C2F82E242
:1022800090E00E94EC2CCF910895AB01BC018FE04F
:1022900090E00E94FE2C0895AB01BC0183E190E028
:1022A0000E94FE2C089560E070E0CB010E944C116A
:1022B000089560E070E0CB010E9445110E94531127
:1022C000089568EE7EEF90E080E00E940A2D60E0C5
:1022D00082E090E00E94EC2C60E083E090E00E94BD
:1022E000EC2C1092F9011092F80160E084E090E08B
:1022F0000E94EC2C64E082E290E00E94EC2C60E012
:1023000085E090E00E94EC2C60E086E090E00E9486
:10231000EC2C6FEF87E090E00E94EC2C40E050E066
:10232000BA0188E090E00E94FE2C60E08DE090E031
:102330000E94EC2C40E050E0BA0188E190E00E945D
:10234000FE2C60E087E190E00E94EC2C40E050E041
:10235000BA018CE190E00E94FE2C70E060E080E227
:1023600090E00E940A2D40E050E0BA0188E190E040
:102370000E94FE2C0E94591108950E946111089537
:10238000682F8EE090E00E94EC2C08950E94B82403
:1023900060935602709357028093580290935902AB
:1023A00060935202709353028093540290935502AB
:1023B0000895089508950E94DA11089508950E94DD
:1023C000DE1108958BE894E10E944B230E94D911FD
:1023D0000E94DB11089581E008950E94EB11089599
:1023E000089508950E94F0110E94F11108950E942D
:1023F000A7140E94D50708950E94A3240E94831564
:102400000E94F7110E94E11D0E94DF110895AAE0C9
:10241000B0E0EDE0F2E10C94772C0E94991528E4ED
:10242000822E22E0922E640110E0F601E190F190FC
:102430006F01812F0E94CA141F5F153009F449C033
:10244000E816F90691F380915A0281FD0E94D31497
:102450000E94ED11782E10E0812F0E94CA147C0199
:10246000F401A190B1904F018A159B0561F100E044
:10247000CC24C394D12CAE24BF24C5018C219D2132
:10248000892BC1F07720B1F00E831F8321E0C701B3
:102490008C219D21892B09F420E028870E94AC24FF
:1024A0008160782F9A8789874E815F8168858A85C8
:1024B0000E9401080F5FCC0CDD1C0F30F1F6F40117
:1024C0003297F182E0821F5F153031F60E94C6110B
:1024D00022C0E816F90609F0B6CF0E94AC248C01A0
:1024E000809146029091470208171907A1F08FEFDB
:1024F00089838A831B820E94AC248160782F9D830C
:102500008C8349815A816B818D810E9401081093CF
:102510004702009346020E94141E0E94B7170E94B1
:10252000E8072A96EDE00C94932CCF93DF930E945A
:10253000A613EC01811521E5920708F042C0811530
:1025400030E5930708F09FC0883E910530F5803E46
:10255000910508F094C0883A910588F4853A910570
:1025600008F086C08130910509F489C0009709F40C
:1025700086C0049708F083C0D0E0C0E080C08F3BE5
:102580009105D0F7C85AD0E0CC0FDD1FC55ADE4FF9
:102590000990D881C02DD46472C0811540E294079F
:1025A00050F4C11581E0D80708F069C0CD3ED105CF
:1025B00018F3D06564C081159044F0F2DF70D06AE2
:1025C0005EC0811535E5930718F5811544E594073C
:1025D00008F085C0C11583E5D80708F06CC0C115A7
:1025E00022E5D20708F462C0CE018370992721E06A
:1025F00030E002C0220F331F8A95E2F7C695C695D8
:1026000080E2C89FE0011124C22BD32BDC6837C0C5
:10261000811539E59307A8F4811548E5940708F07A
:1026200063C0C11586E5D80708F0A6CF8C2F0E949D
:102630004814C82FD0E0DC2FCC27CC27DF71D06224
:102640001EC081152AE5920708F453C090568115E3
:10265000904208F091CF8D2F8F710E94481490E026
:10266000982F882788279F719C012C2BE901E7CFA1
:10267000C55AD0E0C757DE4FC881D0E0D064CE0144
:10268000DF91CF9108958370992721E030E002C057
:10269000220F331F8A95E2F7C695C69540E2C49F84
:1026A000E0011124C22BD32BDD68E9CFDC2FCC272E
:1026B000C16FD06AE4CFCE018370992721E030E06A
:1026C00002C0220F331F8A95E2F7C695C69540E2F5
:1026D000C49FE0011124C22BD32BDA68D0CFD82FAE
:1026E000CC27C46FD06ACBCFD82FCC27C06FD06A8D
:1026F000C6CF8F700E94481434E0D695C7953A959E
:10270000E1F7CF709C2FEC01D069B9CF972F7530CE
:10271000A8F46F3098F470E02FE0929F600D711D67
:102720001124FB019BE4899FE00DF11D1124EE0FA4
:10273000FF1FE455FF4F85919491089580E090E04C
:1027400008950E9486130E9495120895823891057B
:10275000B9F1B0F48133910509F47DC048F48932B0
:10276000910509F46DC08A32910509F47BC0089582
:102770008533910509F45FC08933910509F1089506
:10278000833E9105D9F138F4803E910529F1823ECE
:10279000910579F10895863E9105D9F1873E91051D
:1027A00009F43EC0843E910541F52091950221FF38
:1027B00024C08091940284FD19C087EE90E00895B2
:1027C00020919402237009F05AC02091950223FFB2
:1027D00014C089E290E008952091940220FD38C051
:1027E0003091950230FF09C024FF43C090E080E0A3
:1027F00008952091940222FDF7CF0895209194022C
:1028000022FD3AC03091950230FD39C024FFF5CF4A
:10281000EDCF2091940223FFF0CF24FDE7CFCDCF61
:102820002091940223FD2EC03091950231FFEECF0E
:1028300084EE90E008952091940225FFDECFC9CF69
:102840002091940225FD21C02091950223FFD5CF30
:1028500089E390E0D2CF2091940226FFCECF8AE286
:1028600090E008952091940226FFC7CF81E390E085
:10287000089583EE90E0089582EE90E0089580EE52
:1028800090E0089586EE90E0089585E390E0089545
:102890009091940292FF06C0282F28712830F9F4F5
:1028A000877F846093FF06C0282F28712831F1F4B8
:1028B000877E84612091950220FF06C0382F3871F1
:1028C0003830D9F4877F816021FF06C0282F287116
:1028D0002831D1F4877E816194FD877E0895282F69
:1028E00024712430F9F68B7F8860DCCF282F247187
:1028F000243101F78B7E8861DDCF382F3171313083
:1029000019F78E7F8860E0CF282F2171213121F7C0
:102910008E7E8861E1CF80E008950E940D110895B8
:102920000E9499158FE39CE90197F1F700C0000020
:102930000E94991580E00E94CA1480FF04C00E9482
:102940008D140E94F72408950E94901408950E9407
:102950001411811102C00E94BD110E941F118093A9
:102960005A020E94291190939502809394020E942A
:10297000A4140E94241190E00E94FF0B8091F601A4
:102980009091F7010E94200C0895089508950E94E7
:10299000C6140895E82FF0E0EE0FFF1FE056FD4F3C
:1029A000808191810895089580EA8A95F1F70895CC
:1029B00000C008950E94D4140895F894E82FE29579
:1029C000EF70F0E031A1282F2F7081E090E001C07E
:1029D000880F2A95EAF7982F9095932391A392A1B7
:1029E000892B82A3789408950F931F93CF93DF933D
:1029F000CBE9D1E089918F3F11F00E94DD1481E095
:102A0000C03AD807B9F7CCE8D1E00BE911E08991D9
:102A10008F3F11F00E94DD140C171D07C1F7DF91E5
:102A2000CF911F910F910895AF92BF92DF92EF92D5
:102A3000FF920F931F93CF93DF938C01D62EC62F57
:102A4000D0E0CE0185569E4F7C01FC0120812F3FB6
:102A500009F44CC0F894E22FE295EF70F0E031A158
:102A60002F7081E090E001C0880F2A95EAF7932F3C
:102A7000982B91A392A18095892382A378940E9498
:102A8000D814ECE8F1E041E050E0B12CA12C219108
:102A90002F3FB1F1A22FA295AF70B0E090968C912C
:102AA00090E02F7002C0959587952A95E2F780FDFA
:102AB00027C0CA01A82AB92A440F551F81E0EB3963
:102AC000F80729F7F70180818F3F11F00E94DD148C
:102AD00061E0A114B10409F460E08D2D0E94DA14C4
:102AE000CC0FDD1FC00FD11FB982A882DF91CF911B
:102AF0001F910F91FF90EF90DF90BF90AF900895DE
:102B000090E080E0D7CF0E94F4148AE0E0EAF2E09F
:102B1000DF01982F1D929A95E9F7E6E9F2E0DF01CF
:102B20001D928A95E9F785E00E94D4150E94490715
:102B30000895AAE0B0E0EFE9F5E10C947F2C8E0156
:102B40000F5F1F4F8AE0F80111928A95E9F7F12C87
:102B50006F2DC8010E941415F394F5E0FF12F8CF11
:102B60004AE050E0B80186E992E00E94C22C21E0E0
:102B7000009709F420E0892B41F08AE0F801A6E9EA
:102B8000B2E001900D928A95E1F745E060EA72E0CB
:102B900086E992E00E94D515182F0E944C07812FDC
:102BA0002A96E5E00C949B2C0895CF92DF92EF9249
:102BB000FF921F93CF93DF936C017B01C42F2223DD
:102BC00049F081E080935D020E94AC2490935C0206
:102BD00080935B0210915D0211110AC010E0812FF9
:102BE000DF91CF911F91FF90EF90DF90CF900895EC
:102BF00080915B0290915C020E94C424059770F35F
:102C0000D0E0CC0FDD1FAE01B601C7010E94C22C7F
:102C1000892B41F0AE01B601C7010E94CF2C109262
:102C20005D02DDCF10E0FBCF0E94BE260E94FC11AA
:102C30000E94CB2608950E94D0260E9407120E946F
:102C4000EA2608950E9445240E94A4260E94E211CB
:102C50000E9414160E941B160E94F211FBCF809155
:102C6000640280FF0DC06091070170E0660F771F5E
:102C70006038710570F56115710569F1862F089549
:102C800081FF07C06091070184E0689FB0011124B3
:102C9000EFCF6091070182FD0AC080916302882313
:102CA000A9F02091060160910701821710F088E0D9
:102CB000ECCF869FC001112433E0880F991F3A950D
:102CC000E1F7622F70E00E94052CD2CF68E070E03F
:102CD000D5CF8FE7089581E008958091640280FF49
:102CE0000CC06091030170E07595679575956795C7
:102CF0006115710549F1862F089581FF06C0609125
:102D0000030170E075956795F3CF6091030182FD33
:102D10000BC0909162029923A1F060910201809111
:102D20000301961738F0682F70E06038710500F3E2
:102D30008FE70895899FC001112470E00E94052C3F
:102D4000F4CF61E070E0D7CF81E008958D3E31F49B
:102D50000E942F1681958093680208958E3E19F483
:102D60000E942F16F8CF8F3E31F40E942F168195C6
:102D7000809367020895803F19F40E942F16F8CFC0
:102D8000893F29F40E946D168093690208958A3F55
:102D900021F40E946D168195F7CF8B3F31F40E948C
:102DA0006D16819580936A0208958C3F19F40E94F4
:102DB0006D16F8CF9FE0980F983070F4815F990BF3
:102DC00021E030E001C0220F8A95EAF78091660287
:102DD000822B8093660208958D3F31F480916402C6
:102DE00081608093640208958E3F21F48091640293
:102DF0008260F7CF8F3FB9F7809164028460F1CF92
:102E0000409167028D3E59F48091680287FF0DC0A2
:102E10001092680241110BC01092630208C08E3EEE
:102E200081F48091680218169CF3442381F080910C
:102E3000690290916A02892B09F05AC010926202CD
:102E400008958F3E49F447FFF0CF109267028091BA
:102E500068028111ECCFE0CF803F19F41416ACF377
:102E6000E4CF90916902893F29F41916F4F6109283
:102E70006902DBCF8A3F19F497FFD7CFF8CF909143
:102E80006A028B3F29F497FFD0CF10926A02CDCF10
:102E90008C3F19F41916CCF3C8CF9FE0980F9830E7
:102EA00090F4815F990B21E030E0B90102C0660F18
:102EB000771F8A95E2F7CB0180959091660289236E
:102EC00080936602B2CF8D3F31F4809164028E7F91
:102ED00080936402AACF8E3F21F4809164028D7F9B
:102EE000F7CF8F3F09F0A1CF809164028B7FF0CFA5
:102EF00008950E94AC249C01909167028091680221
:102F0000982B21F030936102209360029091690226
:102F100080916A02982B21F030935F0220935E0229
:102F200085E692E00E946D23089586E0E5E6F2E0F2
:102F3000DF011D928A95E9F71092630210926202F6
:102F4000109264020895FC01828181110EC0838178
:102F500081110BC08481811108C091E085818111AC
:102F600001C090E0892F8170089581E0FCCFA6E038
:102F7000B0E0EDEBF7E10C94812C86E0E5E6F2E0C1
:102F8000DE01119601900D928A95E1F71092670289
:102F9000109268021092690210926A028B819C81E1
:102FA000892B89F080916002909161020E94C42473
:102FB000AC01909163029923C9F1809108018417B3
:102FC000150608F440C08D819E81892B91F0809177
:102FD0005E0290915F020E94C424AC019091620253
:102FE000992309F471C0809104018417150608F42F
:102FF00079C0BE016F5F7F4F85E692E00E94FC239F
:10300000811105C085E692E00E94A31781110E94FC
:10301000791786E0FE013196A5E6B2E001900D92A7
:103020008A95E1F72696E3E00C949D2C2091090106
:103030008AE0289F900111242417350720F69F5F0E
:103040009093630202C09F3FD1F71B81112359F077
:103050000E942F169FEF11160CF491E0899F802D8E
:103060001124809367021C81112359F00E942F16AE
:103070009FEF11160CF491E0899F802D112480930D
:10308000680230916702332309F49DCF20916802D2
:10309000222309F498CF45EB3403C001112499236E
:1030A00059F09093670245EB2403900111243323D8
:1030B00039F03093680287CF81E080936702F3CFC5
:1030C00081E0809368027FCF209105018AE0289FEC
:1030D000900111242417350708F08BCF9F5F909340
:1030E000620202C09F3FD1F71D81112359F00E9457
:1030F0006D169FEF11160CF491E0899F802D11241D
:10310000809369021E81112359F00E946D169FEF72
:1031100011160CF491E0899F802D112480936A028E
:1031200030916902332309F464CF20916A0222238B
:1031300009F45FCF45EB3403C0011124992359F002
:103140009093690245EB240390011124332339F055
:1031500030936A024ECF81E080936902F3CF81E021
:1031600080936A0246CFEF92FF920F931F93CF9303
:10317000DF93EB01E82FD1110EC0442321F0F0E0E2
:10318000ED5DF44FE4916E2F7E2F8E2FCDB7DEB71D
:10319000E6E00C949A2C0D2F10E0282F30E0442309
:1031A00029F02D5D344FF901249130E0F6E0CF9FF6
:1031B000C0011124EFEFF0E0BF010E94F12BAB0141
:1031C0008C2F90E0880F991FA5E5A49FB001A59FC3
:1031D000700D1124861B970B982F990F980FBF0124
:1031E000601B710B629FD001639FB00D729FB00D89
:1031F00011248B2F9D9FB0011124672F7727EF019A
:10320000C61BD70BBE01629FE001639FD00D729F6A
:10321000D00D11247F01E91AF108E09EB001E19E72
:10322000700DF09E700D1124672F7727E61BF70BAA
:10323000E29F8001E39F100DF29F100D1124E12FFA
:10324000722F4230510599F048F44115510569F04B
:103250004130510581F0EB2F8D2F07C044305105CF
:1032600069F080F046305105B1F76E2F8FCFE22F15
:103270007B2F812FFACFE22F7D2FF7CFEB2F822FDD
:10328000712FF3CF7B2F822FED2FEFCF41E00E94E4
:10329000B318089508950E9446190895CF93DF93B7
:1032A000762FE901682F842F0E944B197983688358
:1032B0008A83DF91CF9108958091AA02982F9E7FF3
:1032C00029F4817082608093AA0208958A34E8F319
:1032D00081708864F8CF88E090E00E94E02C089527
:1032E000CF92DF92EF92FF926B017C010E945C19FA
:1032F000B701A60188E090E00E94FE2CFF90EF90BD
:10330000DF90CF900895EAEAF2E083E080831182B3
:103310008FEF8283838314826081718182819381A4
:103320000E94701908958091AA0280FF02C08695BC
:10333000089580E008959091AE02933018F49F5F55
:103340009093AE02882351F06091AA027091AB0273
:103350008091AC029091AD020E947019089581E0B5
:103360000E949B1908959091AE02992319F09150F3
:103370009093AE02882351F06091AA027091AB0243
:103380008091AC029091AD020E947019089581E085
:103390000E94B319089570E00E94851F08956091FE
:1033A0000E018091AA0280FF0BC080910D0123E0E5
:1033B000829FC001112481559D4F0E94CB19089511
:1033C00080910F019091100123E0829FF001112460
:1033D000E155FD4F891748F71182108212828F5FE5
:1033E0003396F8CF9091AA0290FF0EC090910F01F2
:1033F0002091100133E0939FF0011124E155FD4F1E
:10340000921718F00E94CF19089581836083428338
:103410009F5F3396F5CFA3E0B0E0E1E1FAE10C94D1
:10342000822C9091AA0290FF0AC09E012F5F3F4F0D
:103430000E944E194B8169818A810E94F21923965C
:10344000E2E00C949E2CCF93DF93EC01EC81F0E052
:10345000E25EF54F4491EAEAF2E0628181810E94E6
:103460000B1A8C818F5F8C83DF91CF910895CF935E
:10347000DF93EC01EAEAF2E0438162818C810E94F1
:103480000B1A8C818F5F8C83DF91CF910895A3E01D
:10349000B0E0EDE4FAE10C94802C8C0180916B0299
:1034A00081110AC09E012F5F3F4F4FEF6FEF0E94C7
:1034B0004E198A8180936B02F8016481613069F052
:1034C00080916B0240E0662361F040E0623011F4CD
:1034D00040916B0280E060E004C060916B0240E0CC
:1034E00080E00E94F219F801848190E0019663E087
:1034F00070E00E94052C84832396E4E00C949C2CBD
:10350000A3E0B0E0E6E8FAE10C947B2C082FD62E7D
:10351000E42EC22E9091AA0290FF29C0E92FE695D1
:10352000AE2FB0E0A056BE4F8C91809375029E7F67
:10353000923009F59E012F5F3F4F802F0E944E1958
:103540004B8169818A810E94F2190093AB02D0926B
:10355000AC02E092AD02CC2051F06091AA027091D1
:10356000AB028091AC029091AD020E94701923963B
:10357000E9E00C94972C823019F4E090AD02E5CF8D
:10358000863019F40091AB02E0CF8930D9F389314C
:10359000E1F6E9516E2F6170B62EE695F0E0E25E3D
:1035A000F44F1491F12C60911101F61618F00E945D
:1035B000CF19CBCFF19EC001112470E00E94F12BF6
:1035C000802FB11014C0860F20910F01622F6F0D54
:1035D0007727771F9B01220F331F260F371F215597
:1035E0003D4F4E2D6D2D0E944E19F394DCCF861B5E
:1035F000EBCFEAEAF2E09181282F438162818CE0EF
:10360000890F0E94801A089581E00E94F91A089596
:10361000EAEAF2E09181282F4381628184EF890FE9
:103620000E94801A089581E00E94081B0895EAEA2A
:10363000F2E0628129E1620F08F46FEF282F4381E5
:1036400081810E94801A089581E00E94171B0895CD
:10365000EAEAF2E0628129E1621B08F460E0282FC7
:10366000438181810E94801A089581E00E94281B75
:103670000895EAEAF2E043812CE0420F08F44FEFAC
:10368000282F628181810E94801A089581E00E9422
:10369000391B0895EAEAF2E043812CE0421B08F46A
:1036A00040E0282F628181810E94801A089581E084
:1036B0000E944A1B089520E00E94801A0895EF920C
:1036C000FF921F93CF93DF93EC0110E0EE24EA9476
:1036D000F12C60911101161770F00E94CF199A8198
:1036E0008C8190FF27C08F5F8C83DF91CF911F91DA
:1036F000FF90EF90089520910F01422F410F552721
:10370000551FCA019A01220F331F280F391F215557
:103710003D4F70E0C7010E94052C962F8C8140918F
:10372000AD026091AC02199F800D11240E944E19C8
:103730001F5FCFCF8150D8CFB0E0A0E0E2EAFBE13D
:103740000C947A2CFC0182810FEF80FF01E010E0E5
:1037500046E0A42E80911101181798F00E94CF190D
:1037600080916D02013009F04FC0811102C080913B
:103770001101815080936D02CDB7DEB7EAE00C9461
:10378000962CC0910F01C12ED12CCC0DDD2DD11D59
:10379000CE01880F991FC80FD91FC155DD4F19825F
:1037A00018821A8234E0E32EF12CB12C80916D0244
:1037B0008B0D87301CF16A2D0E94E32B892F082E78
:1037C000000C990BC816D90691F48091AD028E9D1C
:1037D000A0018F9D500D11245595479555954795FE
:1037E0009E016091AC028091AB020E944E19B00E16
:1037F000F1E0EF1AF108D1F61F5FACCF87FFDFCF02
:1038000090911101890FDBCF90E001966091110139
:1038100070E00E94052CAECF0F931F93CF93DF93E0
:1038200080910F019091100123E0829FF0011124FB
:10383000E155FD4F891740F1C0E0D3E060911101DF
:10384000C61740F10E94CF1920910B0180916C02A4
:10385000820F80936C0290910C01920F90930C0157
:10386000191654F4082E000C990B40911101415087
:10387000550B841795071CF0219520930B01DF91C0
:10388000CF911F910F9108951182108212828F5F44
:103890003396D0CF0C2F10E070E0C8010E94052CA9
:1038A00020910F01820F482F50E020916C02022ED0
:1038B000000C330B02171307BCF020910C01022EF1
:1038C000000C330B201731077CF08D9F90011124E1
:1038D00021553D4F4091AD026091AC028091AB0209
:1038E0000E944E19CF5FAACFFA01EE0FFF1FE40F1F
:1038F000F51FE155FD4F118210821282F3CFB0E027
:10390000A0E0E5E8FCE10C94782CEC014C81042F5C
:1039100010E09801D8010E94492C9B01AC010E9443
:103920005F2C4B015C01E0E2F0E0E01BF10BA5E550
:10393000B0E0AC019B010E945F2C6B017C019F01F8
:10394000DF010E94412C9B01AC010E946A2C9B016B
:10395000AC01280D391D4A1D5B1DC701B6010E942F
:10396000192CF22E822F90E039E23F1520F143E02E
:10397000249F9001112435952795122F109500E072
:1039800085E5E82EEF1880911101081718F10E94C3
:10399000CF199C8181E0992319F0903219F48FEFAF
:1039A00080930A0180910A01890F8C83CDB7DEB71D
:1039B000ECE00C94942C25E530E0B901681B790B00
:1039C0009B01220F331F260F371F37FFD4CF2F5FE6
:1039D0003F4FD1CF8E2D01FD8F2D20910F01622FF2
:1039E000600F7727771F9B01220F331F260F371F8A
:1039F00021553D4F412F6091AC020E944E190F5F3F
:103A0000C2CF0F931F93CF93DF93EC0110E000E040
:103A1000909111019017110609F06CF40E94CF19D2
:103A20008C8190E00196817099278C83DF91CF91F2
:103A30001F910F91089520910F01A801420F511D70
:103A40009A01220F331F240F351F21553D4F4C8102
:103A50006091AC028091AB0296959017110651F0DF
:103A60004CF0442349F04091AD020E944E190F5F83
:103A70001F4FCECF4423B9F340E0F7CFEAEAF2E09C
:103A800080818E7F808360817181828193810E9499
:103A90007019109276022FEF80E792E0215080405B
:103AA0009040E1F700C000000E94CF190895609196
:103AB000AA02669570E04BE050E082E191E00E943E
:103AC000B52C892B19F481E0809376020E94AC24F6
:103AD00090936F0280936E0208959091AA0290FFD6
:103AE0002BC09170811129C092609093AA02662325
:103AF00051F06091AA027091AB028091AC0290915A
:103B0000AD020E9470196091AA02669570E04BE0C8
:103B100050E082E191E00E94B52C892BA9F010922F
:103B2000760281E0809371024091AD026091AC0217
:103B30008091AB020E945B1B0895853210F098645F
:103B4000D4CF880F982BD1CF0E94571DEACF682F72
:103B50009091AA02969581E0890F853208F081E064
:103B60000E946D1D089581E00E94A71D0895682F91
:103B70009091AA0296958FEF890F09F484E20E9432
:103B80006D1D089581E00E94B71D089561E00E94B7
:103B90006D1D0895EAEAF2E0808181608083869558
:103BA0000E94C61D08958091AA0280FF03C00E9452
:103BB0003E1D08950E94CA1D089560E00E946D1D7B
:103BC00008958091740281112EC00E9414118111F8
:103BD00004C00E94BD110E9483190E946B1960935A
:103BE000AA027093AB028093AC029093AD026E7FF9
:103BF00061F40E9483190E946B196093AA0270936A
:103C0000AB028093AC029093AD020E945C191092BB
:103C100076028091AA0280FF03C086950E94DD1D76
:103C200081E08093740208950F931F93CF93DF93E5
:103C3000809176028823B9F180917502E091AA0201
:103C4000E695E81BE0937002823091F5F0E0E65EC5
:103C5000F54FE491CE2FD0E003E21AE1809171029A
:103C6000882361F0109271020E94AC2490936F023D
:103C700080936E0210927302109272020E94AC2422
:103C8000E0916E02F0916F028E1B9F0B8F3F9F475A
:103C900050F4EC0FFD1FF0936F02E0936E028EE67E
:103CA00092E0F8010995DF91CF911F910F9108954E
:103CB000863049F4F0E0E95EF54FE491CE2FD0E094
:103CC00007E31AE1CBCF893051F4E695F0E0EC5EE2
:103CD000F54FE491CE2FD0E00FE51BE1BFCF8F3041
:103CE00051F4E695F0E0EF5EF54FE491CE2FD0E091
:103CF0000CE91BE1B3CF853149F4F0E0E25FF54F09
:103D0000E491CE2FD0E00CE01CE1A8CFC8E2D0E0D7
:103D10000FE71CE1883109F4A1CF833239F4ECE0DC
:103D2000FAE0C591D49107E41AE198CFC4EFD1E04D
:103D300001E01DE1843209F491CFC0EDD7E00AE43F
:103D400019E18CCFFA01811101C0FB010995089599
:103D5000CF93DF93C82FD62F0E9493198C1748F06A
:103D60000E9493198D1728F40E94B31DDF91CF9103
:103D700008958C2F0E94C61DF9CF1F93CF93DF9318
:103D8000EC01FB01128111117EC00E94261082728B
:103D9000CD3CFCE5DF0709F49CC008F041C0C73CFE
:103DA000ECE5DE0709F481C0D8F4C43C9CE5D907F2
:103DB00009F471C030F4C33CDC4509F469C011E07A
:103DC00062C0C53C9CE5D90709F46AC043E15BE1E8
:103DD00064E07BE1C63CDC4591F70E94A21E53C023
:103DE000CA3CFCE5DF0709F46AC068F4C83CECE5AE
:103DF000DE0709F45FC044E25BE165E37BE1C93CB7
:103E0000DC4559F3DCCFCB3C9CE5D90709F45CC019
:103E100047EC59E16FEA79E1CC3CDC45F1F2CFCFD8
:103E2000C23DFCE5DF0709F465C098F4CF3C9CE592
:103E3000D90709F457C008F451C0C03DFCE5DF07BD
:103E400009F455C0C13DDC4509F0B9CF6EE089E009
:103E50004BC0C53D9CE5D90709F452C058F4C33D99
:103E6000FCE5DF0709F449C0C43DDC4509F0A7CFF4
:103E700088E135C0C63D9CE5D90709F444C0CE357C
:103E8000DD4509F09CCF812FDF91CF911F910895DF
:103E90000E94D31DF8CF42EC5DE163EB7DE19DCF45
:103EA00043EB5DE162EC7DE198CF44E05BE163E1EF
:103EB0007BE193CF45E35BE164E27BE18ECF47E5B5
:103EC0005BE166E47BE189CF46E45BE167E57BE1AA
:103ED00084CF4FEA59E167EC79E17FCF81E00E941E
:103EE000C61DD1CF65E082E00E94A81ECCCF68E05D
:103EF00086E0FACF64E18FE0F7CF67E185E1F4CFA8
:103F000062E289E1F1CF83E2EACF869A41B34F7B47
:103F100051B35064EFB7F8949B01220F331F260F63
:103F2000371F280F391F2817390741F4EFBF8FE5D6
:103F300094E00197F1F700C000000895DC016D9155
:103F4000CD0178E051BB000000C067FF41BB660FA8
:103F5000000000C000C000C041BB00C07A9591F7CE
:103F6000E2CFCF93DF93EC01FB018281882309F438
:103F700064C1C430FDE5DF07E0F5CB3F9CE5D90720
:103F800030F49E0122503C4524313105D8F50E9481
:103F900029119093950280939402C231ECE5DE07DB
:103FA00009F41FC108F06EC0C9308CE5D80709F4C8
:103FB000F2C008F03FC0C530ECE5DE0709F4DBC015
:103FC00058F5C3308CE5D80709F4CDC008F0CFC050
:103FD000809194028160C230DC4509F4AEC08091CA
:103FE0009402909195020E9437110E94AA0B80E0E2
:103FF00009C0C63AEDE5DE0751F238F4C2369DE558
:10400000D90729F2DF91CF9108959E012E5A3D459F
:1040100023303105B8F7BBCF809194028062C7305E
:10402000FCE5DF0709F489C008F4B1C0809194026F
:10403000806483C0CD309CE5D90709F4BAC070F420
:10404000809194028E7FCB30FCE5DF0709F475C0C8
:1040500008F4A7C0809194028D7F6FC0CF309CE59B
:10406000D90709F4B6C008F4A8C0C031FCE5DF07E1
:1040700009F4B3C0C131DC4509F0B1CF809194029D
:104080008F7B5BC0C1159DE5D90709F4B4C098F5D5
:10409000CB3FFCE5DF0709F472C0B8F4C4319CE5FE
:1040A000D90709F4B6C008F4A2C0C531DC4509F04F
:1040B00096CF8091940282FB992790F921E0922774
:1040C00090FB82F990FB83F938C0CD3F8CE5D8078F
:1040D00009F477C008F457C0CE3FECE5DE0709F4D9
:1040E00074C0809195028360CF3FDC4509F077CFA3
:1040F0008093950274CFC2368DE5D80709F496C037
:1041000068F4C230EDE5DE0709F48CC008F477C02E
:10411000C330DD4509F063CF80E085C0CE3A9DE530
:10412000D907E9F068F490919402892F8E7F90FF6F
:104130008160C63ADD4509F052CF809394024FCF9B
:10414000CF3A8DE5D80789F1C03BDD4509F047CF6F
:1041500090919502892F877F93FF8860C9CF8091C6
:1041600095028860C5CF809194028260E6CF8091ED
:1041700094028460E2CF809194028860DECF8091C7
:1041800095028160B5CF809195028260B1CF809118
:1041900094028061D2CF0E94AA0B80919402806821
:1041A000CCCF809194028C60C8CF80919502877F9C
:1041B0009FCF809194028B7FC0CF80919402877FA4
:1041C000BCCF809195028E7F93CF809195028D7F99
:1041D0008FCF809194028F7EB0CF809194028F7D9B
:1041E000ACCF0E94AA0B809194028F77A6CF8091CA
:1041F0009402837FA2CF809195028C7F79CF8091AA
:104200009502982F909591708E7F892B90FB81F964
:104210006FCF0E94AA0B90919402892F97FB87F988
:1042200080588BCF81E00E94C011D9CE909194022A
:10423000892F8F7E94FF806180CF81E0E3CE8B3128
:1042400009F465C040F58B3071F078F4863009F4DC
:1042500047C020F4853059F180E00895873009F493
:1042600048C08830C9F781E00895803109F45DC005
:1042700068F48E3089F790915A02892F8B7F92FFD4
:10428000846080935A0282FD4CC0EDCF863159F391
:10429000893149F3E1CF8A3201F160F48732B1F01C
:1042A00020F48E31C8F28D514CC08932A9F60E949B
:1042B0005E07D9CF833440F48A3308F041C0853398
:1042C00029F0883381F2C8CF833431F681E090E061
:1042D0000E94FF0B0E94AA0BC6CF0E94BD11C3CF44
:1042E00080915A02807F80935A0281E080937A0203
:1042F000089590915A02892F8E7F90FF816080935C
:104300005A0280FDB0CF817F80935A02ACCF90914A
:104310005A02892F8D7F91FF826080935A0281FF1C
:10432000A2CF80915A028160EFCF90915A02892FDB
:10433000877F93FF886080935A0283FDF2CF93CFEB
:10434000895321E030E0A90102C0440F551F8A952E
:10435000E2F7CA01BDCF80E008950E94AB21089525
:10436000CF93C82F80917A028130B9F0882331F041
:104370008230A1F110927A0280E00DC00E942610D6
:104380008232D1F78C2F0E94AB2181111BC08C2F60
:104390000E941F218170CF9108950E9426108232C1
:1043A00089F38C2F0E94AD2181110AC0C43199F08C
:1043B00060F4CB3029F0C03169F782E080937A0253
:1043C00081E0E8CF81E090E0E5CFC93221F0C83349
:1043D000B9F380E0DFCF10927A02FBCFC93209F443
:1043E00040C0F0F4C431E9F1A8F481E0C73099F697
:1043F0008093090184E1809308018AE0809307019A
:104400008EE18093060188E08093030188E2809327
:10441000020104C082EE8C0F8A3070F181E0BBCFC4
:10442000C03509F450C0B8F48AE0CF34B9F7E09150
:104430007702F0917802309789F32081082E000CE2
:10444000990B820F911D8F3F910509F00CF43FC02D
:104450008FEF8083E3CFC135C1F181E0C23539F3FD
:104460009ACF809179028823C9F210927902109232
:10447000780210927702D2CFCD51C0937902C33027
:10448000C9F048F4C13099F088E091E0C23051F0B1
:1044900010927902C3CFC53099F078F082E091E0B4
:1044A000C630B1F79093780280937702B7CF89E056
:1044B00091E0F8CF87E091E0F5CF86E091E0F2CF90
:1044C00083E091E0EFCF86EFB2CF8FEFB0CF97FFD1
:1044D000C0CF1082A3CFCF93DF93EB0186319C45F1
:1044E00011F50E9426109A81992399F08A7A91E019
:1044F00009F490E090937B02811109C089E20E9447
:10450000FE0F0E94671080E0DF91CF91089585E350
:10451000F6CF80917B02811104C089E20E940610CF
:10452000F0CF85E3FBCF81E0EFCF0F931F93CF93C5
:10453000DF93C42FD22FFC0182818823C9F04093DE
:104540007E020E94AC2490937D0280937C0280E2E4
:104550008C0F883040F4C77081E001C0880FCA9585
:10456000EAF70E944C09DF91CF911F910F910895B6
:1045700010917E02141332C080917C0290917D02D2
:104580000E94C424883C910548F5C0E2CD0F1D1758
:10459000B9F080E2810F883040F4177081E001C0EB
:1045A000880F1A95EAF70E945309C83048F481E051
:1045B0009D2F977001C0880F9A95EAF70E944C09C9
:1045C000802F0E944309C83070F6D77081E001C087
:1045D000880FDA95EAF70E945309C5CF80E28C0F65
:1045E000883008F6C77081E001C0880FCA95EAF7E5
:1045F000F2CF0F939C01CB01243F4CE5340759F1D6
:10460000A8F4293DFCE53F0701F12A3D4CE53407BC
:10461000D1F1283D3C4591F406E221EE41EE68EDF2
:104620007CE50E94952280E00F910895263FFCE5ED
:104630003F07E9F0B0F0273F3C45F9F0FC018281EB
:10464000882339F110927E02EFCF07E225EE45EE86
:1046500069ED7CE5E6CF06E221EE40EE64EF7CE515
:10466000E0CF07E225EE44EE65EF7CE5DACF06E227
:1046700021EE42EE66EF7CE5D4CF07E225EE46EE72
:1046800067EF7CE5CECF08E221E045EE6AED7CE500
:10469000C8CF81E0C9CF9093C7018093C601089528
:1046A00090938402809383020895E0918302F091B5
:1046B0008402309729F00190F081E02D099508954A
:1046C00080E00895E0918302F0918402309721F018
:1046D0000280F381E02D09950895E0918302F09125
:1046E0008402309739F022E0DC012C930480F581BC
:1046F000E02D0995089520918102309182022817BA
:10470000390771F09093820280938102E0918302D5
:10471000F0918402309721F00680F781E02D099511
:10472000089520917F02309180022817390771F097
:104730009093800280937F02E0918302F091840243
:10474000309721F00084F185E02D099508959C01B2
:104750002E5F3F4FAC01485F5F4F80E02417350765
:1047600009F40895F90191919F019923B9F38F5F9D
:10477000F5CF662349F0FC01329608962191261761
:1047800029F0E817F907D1F780E0089581E008954E
:104790009C01FC0132969FEF80E04191461751F059
:1047A0009F3F19F4411101C0982F8F5F8630A9F700
:1047B0009F3F09F40895290F311D97FD3A95F9019E
:1047C00062830895FC01329608962191261303C056
:1047D000DF0111971C92E817F907B9F708950E94B5
:1047E000C82308950E94E2230895029626E0FC0162
:1047F00011922A95E9F7089546E050E00E94C22CF4
:1048000021E0892B09F420E0822F089508950E9469
:1048100006240895811106C081E0809385020E94DC
:104820000724089582E0F9CF83E0809385020E94F7
:10483000072408950E940A24089581E08093850248
:104840000E94072408950E941D2408950895089544
:104850000E9427240895089508950E94262408950B
:10486000CF930E942B240E9499150E942C24C0E013
:104870008C2F0E94CA14892B31F4CF5FC530C1F749
:1048800080E0CF91089581E0FCCF85B7806885BF37
:1048900085B7806885BF08951F921FB61F921124A7
:1048A0008F939F93AF93BF9380918602811113C022
:1048B0008091C1029091C202A091C302B091C40242
:1048C0004196A11DB11D8093C1029093C202A09395
:1048D000C302B093C402BF91AF919F918F911F907B
:1048E0001FBE1F9018958091C902843031F10E943B
:1048F000C2071092860288E190E020E40FB6F89497
:10490000A895809360000FBE2093600083B7817FDD
:10491000846083BF83B7816083BF7894889583B7B1
:104920008E7F83BF0FB6F894A89580916000886150
:1049300080936000109260000FBE08950E94AA0B41
:104940000E94C707089582E084BD93E095BD9AEF69
:1049500097BD80936E0008952FB7F8948091C1029F
:104960009091C202A091C302B091C4022FBF0895DA
:104970002FB7F8946091C1027091C2028091C30276
:104980009091C4022FBF08959C014FB7F894809175
:10499000C1029091C202A091C302B091C4024FBF64
:1049A000821B930B089578941F921FB61F921124B7
:1049B0008F939F93AF93BF938091C1029091C20256
:1049C000A091C302B091C4020196A11DB11D8093B4
:1049D000C1029093C202A093C302B093C402BF91DC
:1049E000AF919F918F911F901FBE1F90189581E0EE
:1049F0008093E00080E28093D8001092C9008FE19C
:104A00009EE40197F1F700C0000087E090EBDC0125
:104A10008093D2029093D302A093D402B093D50294
:104A200088E19CE00FB6F894A895809360000FBED3
:104A300090936000FFCF88E19CE00FB6F894A895B2
:104A4000809360000FBE90936000FFCF8091920230
:104A5000089508959C0182E08093E9009FEF809182
:104A6000E800915085FD06C085ED8A95F1F70000BC
:104A70009111F5CF8091E80085FF0CC050E040E037
:104A800066E070E0C9010E945C278091E8008E77A3
:104A90008093E8000895CF93DF93EC0181E0809349
:104AA000E9008FEF9091E800815095FD06C095EDEB
:104AB0009A95F1F700008111F5CF8091E80085FF0C
:104AC00014C050E040E068E070E0CE010E945C2736
:104AD0008091E8008E778093E80088E0FE01AAE8E4
:104AE000B2E001900D928A95E1F7DF91CF910895A0
:104AF0008093870270938902609388028091C90233
:104B0000843001F582E08093E9008FEF9091E80016
:104B1000815095FD06C095ED9A95F1F70000811141
:104B2000F5CF8091E80085FF0DC050E040E063E0E4
:104B300070E087E892E00E945C278091E8008E7721
:104B40008093E8000895BC0184E00E9478250895D0
:104B5000BC0183E00E94782508958091C8028111EC
:104B600009C00E94EC280E9449298091E2008460DB
:104B70008093E20008951092C80208950E941D24B7
:104B800008956091C50281E0611101C080E00E943A
:104B9000142408959091C90281E0943009F080E0D6
:104BA0006091C5020E941A24089542E061EC81E000
:104BB0000E94682842E261EC82E00E94682890919D
:104BC000C90281E0943009F080E06091C5020E9442
:104BD0000A2408958091CB02833009F461C030F437
:104BE0008130D1F1823009F49EC008958A3009F4F1
:104BF0008AC08B3009F46FC0893009F050C08091B1
:104C0000CA02813209F04BC08091CE029091CF024E
:104C1000029708F044C08091E800877F8093E80005
:104C20008091E80082FF37C09091F3008091F200FC
:104C3000029731F48091F100813011F0863021F437
:104C40008091F100809392028091E8008B778093AD
:104C5000E8000E949C2823C08091CA02813AF9F49E
:104C60008091E800877F8093E8008091CE02909148
:104C7000CF02892B61F468E08AE892E070E00E943C
:104C8000AB278091E8008B778093E800089560E07F
:104C900090E080E0F3CF8091C9028111C1CF0895E7
:104CA0008091CA02813AD9F78091CE029091CF02C9
:104CB000892BA9F78091E800877F8093E800809195
:104CC000E80080FFFCCF809129018093F100809162
:104CD000E8008E77BCCF8091CA02813201F78091C3
:104CE000CE029091CF02892BD1F68091E800877F88
:104CF0008093E8000E949C288091CC028093290137
:104D00000E94AA0B08958091CA02813241F68091D7
:104D1000E800877F8093E8000E949C288091CD0264
:104D20008093930208958091CA02813A09F0B7CF27
:104D30008091E800877F8093E8008091E80080FF01
:104D4000FCCF80919302C1CF84B7877F84BF0FB619
:104D5000F894A8958091600088618093600010921B
:104D600060000FBE80E890E00FB6F8948093610079
:104D7000909361000FBE0E94232408950E94EC28A6
:104D80000E944929E2EEF0E080818460808378947B
:104D90000E94C82B08958DE191E00E945023089550
:104DA0008091C902853031F48091C902853019F0B3
:104DB0000E949E2408950E9473248091C702882334
:104DC00099F30E943024882379F30E9446270E9499
:104DD000AA0BEACF08950E94EE260895292F3327C3
:104DE0002330310519F168F42130310509F444C04C
:104DF0002230310509F445C090E080E030E020E049
:104E000025C02132310549F122323105A9F780E46C
:104E100090E029E03DE061157105C1F08BE790E07D
:104E20002EE83CE06130710589F0E6CF99278130AA
:104E3000910581F0009729F00297F1F6E3E2FCE09A
:104E400002C0EDE3FCE0849190E09F01FA01318320
:104E500020830895EFE2FCE0F6CF89E090E023E5BF
:104E60003CE06115710591F389E090E02CE63CE0AF
:104E70006130710559F3C0CF82E190E02CE73CE04E
:104E8000E5CF8BE390E021E43CE0E0CF80E189BD19
:104E900082E189BD09B400FEFDCF8091D8008F7DED
:104EA0008093D8008091E00082608093E000809140
:104EB000E00081FDFCCF0895AF92BF92CF92DF92C8
:104EC000FF920F931F93CF93DF936C01EB018A0145
:104ED0000E94BB28F82E811123C00115110539F05D
:104EE000F80180819181C81BD90BC80ED91EB12C45
:104EF000A12C2097A9F08091E80085FD22C0809127
:104F0000E8008E778093E80001151105A1F0F80103
:104F100080819181A80EB91EB182A08285E0F82E11
:104F20008F2DDF91CF911F910F91FF90DF90CF9048
:104F3000BF90AF9008950E94BB288823D1F2F82E2D
:104F4000EFCFF60181916F018093F1002197FFEF80
:104F5000AF1ABF0ACECFFC018091D0029091D1024E
:104F600086179707A0F06115710529F49091E80064
:104F70009E779093E80090E06115710551F49111CE
:104F800008C08091E80082FF34C080E00895BC0131
:104F9000F2CF8091C9028823C1F18530C1F180919F
:104FA000E80083FD30C08091E80082FDEACF809167
:104FB000E80080FFE1CF8091F3002091F200382FCC
:104FC0006115710519F02830310558F091E028304D
:104FD000310509F090E02091E8002E772093E80059
:104FE000CBCF81918093F100615071092F5F3F4FCA
:104FF000E7CF8091C902882341F0853041F080914C
:10500000E80083FFBECF81E0089582E0089583E049
:105010000895FC018091D0029091D10286179707E4
:10502000A0F06115710529F48091E8008E778093D6
:10503000E80090E06115710551F4911108C080916C
:10504000E80082FF35C080E00895BC01F2CF809176
:10505000C9028823C9F18530C9F18091E80083FD38
:1050600031C08091E80082FDEACF8091E80080FFA6
:10507000E1CF8091F3002091F200382F6115710586
:1050800019F02830310558F091E02830310509F049
:1050900090E08091E8008E778093E800CBCF8491F8
:1050A0008093F1003196615071092F5F3F4FE6CF39
:1050B0008091C902882341F0853041F08091E80059
:1050C00083FFBDCF81E0089582E0089583E00895D5
:1050D000982F973028F08F708093E90081E0089531
:1050E0009093E900242F762F50E0981731F07091BB
:1050F000EC002091ED005091F00021FD02C09F5F77
:10510000E8CF3091EB003E7F3093EB003091ED0023
:105110003D7F3093ED003091EB0031603093EB0038
:105120007093EC002093ED005093F0002091EE007E
:1051300027FDE5CF80E008958091CA0287FF13C064
:105140008091E80082FF06C08091E8008B77809311
:10515000E80004C08091C9028111F2CF08958091C6
:10516000C9028823D9F38091E80080FFF8CF8091AD
:10517000E8008E77ECCF2091E4003091E50095E6D1
:10518000A9012091EC00822F817020FF06C0809140
:10519000E80080FF06C080E008952091E80022FD2D
:1051A0001AC08091C902882389F0853089F08091E6
:1051B000EB0085FD0FC02091E4003091E50042171F
:1051C0005307F9F29150E1F684E0089582E00895E2
:1051D00083E0089581E008950E945B290E9463297D
:1051E000E0EEF0E0808181608083E8EDF0E0808196
:1051F0008F77808319BCA7EDB0E08C918E7F8C9364
:1052000080818F7E80831092C80208950F931F9330
:10521000CF93DF930E945B290E946329C8EDD0E001
:1052200088818F77888388818068888388818F7D53
:10523000888319BC1092C9021092C5021092C7024D
:105240001092C60200EE10E0F80180818B7F80830F
:1052500088818160888342E060E080E00E94682865
:10526000E1EEF0E080818E7F8083E2EEF0E08081ED
:1052700081608083808188608083F80180818E7F57
:105280008083888180618883DF91CF911F910F9106
:105290000895E8EDF0E080818F7E8083E7EDF0E017
:1052A00080818160808384E082BF81E08093C80236
:1052B0000E9406290895E8EDF0E080818E7F8083CA
:1052C0001092E20008951092DA001092E100089521
:1052D0001F920F920FB60F9211242F933F934F936B
:1052E0005F936F937F938F939F93AF93BF93EF934E
:1052F000FF938091E10082FF0BC08091E20082FF6A
:1053000007C08091E1008B7F8093E1000E94C72B52
:105310008091DA0080FF19C08091D80080FF15C00D
:105320008091DA008E7F8093DA008091D90080FF2F
:1053300096C080E189BD82E189BD09B400FEFDCF40
:1053400081E08093C9020E94AD258091E10080FF39
:1053500019C08091E20080FF15C08091E2008E7F2D
:105360008093E2008091E20080618093E20080916E
:10537000D80080628093D80019BC85E08093C90270
:105380000E94C1258091E10084FF2BC08091E20042
:1053900084FF27C080E189BD82E189BD89B5982F4E
:1053A000917080FFFBCF8091D8008F7D8093D800D3
:1053B0008091E1008F7E8093E1008091E2008F7EFA
:1053C0008093E2008091E20081608093E20080910E
:1053D000C502882309F449C084E08093C9020E9471
:1053E000CA258091E10083FF29C08091E20083FFFC
:1053F00025C08091E100877F8093E10082E0809367
:10540000C9021092C5028091E1008E7F8093E10075
:105410008091E2008E7F8093E2008091E2008061C3
:105420008093E20042E060E080E00E946828809182
:10543000F00088608093F0000E94BE25FF91EF91FC
:10544000BF91AF919F918F917F916F915F914F919C
:105450003F912F910F900FBE0F901F90189519BC80
:105460001092C9020E94BB2570CF8091E30087FD96
:1054700093E09093C902B3CF1F920F920FB60F9291
:1054800011242F933F934F935F936F937F938F9349
:105490009F93AF93BF93CF93DF93EF93FF93D091FD
:1054A000E900DF708091EC00C82FC17080FDC0E87A
:1054B0001092E9008091F000877F8093F00078944B
:1054C0000E94802A1092E9008091F0008860809309
:1054D000F000CD2BCF70C093E900FF91EF91DF91E9
:1054E000CF91BF91AF919F918F917F916F915F917C
:1054F0004F913F912F910F900FBE0F901F901895D5
:10550000AAE2B0E0E6E8FAE20C94812C8AEC92E0A0
:105510002091F100FC012193CF01F2E0823D9F0731
:10552000B9F70E94EA258091E80083FF1EC18091AF
:10553000CA029091CB029A3008F017C1E92FF0E02F
:10554000E25DF24D0C943B2C803899F0823809F0E2
:105550000CC18091CE028F70873008F006C1809315
:10556000E9008091EB0085FB882780F91092E90023
:1055700006C08091C6029091C702911182609091FD
:10558000E800977F9093E8008093F1001092F1007B
:105590008091E8008E77E5C0882309F4D3C082307B
:1055A00009F0E3C08091CC028111D6C08091CE0277
:1055B0008F702FEF280F263008F0D7C08093E900B6
:1055C0002091EB0020FFC8C0933031F48091EB00B4
:1055D00080628093EB00C0C09091EB00906190934B
:1055E000EB0021E030E001C0220F8A95EAF720931A
:1055F000EA001092EA008091EB008860EACF811106
:10560000B4C01091CC021F778091E3008078812B89
:105610008093E3008091E800877F8093E8000E94F8
:105620009C288091E80080FFFCCF8091E300806897
:105630008093E30082E0111183E08093C90295C05A
:105640008058823008F091C08091CC029091CD02B8
:105650008C3D23E09207A1F583E08A838AE2898367
:105660004FB7F894DE01139620E03EE051E2E32FBD
:10567000F0E050935700E49120FF03C0E295EF70F3
:105680003F5FEF708E2F90E0EA30C0F0C7968D93A9
:105690009D932F5F243159F74FBF8091E800877F9A
:1056A0008093E8006AE270E0CE0101960E94AB2789
:1056B0008091E8008B778093E80057C0C096E7CFD1
:1056C0006091CE027091CF02AE014F5F5F4F0E949A
:1056D000EB26BC01892B09F448C09091E800977F24
:1056E0009093E80089819A810E940928E1CF80384F
:1056F000E1F58091E800877F8093E8008091C50202
:105700008093F10045CF811130C09091CC0292304E
:1057100060F58091E800877F8093E8009093C50250
:105720000E949C288091C502882311F084E005C066
:105730008091E30087FDFACF81E08093C9020E9447
:10574000D52513C08091CC02813079F481E093306B
:1057500009F080E08093C7021092E9008091E80090
:10576000877F8093E8000E949C288091E80083FF57
:105770000AC08091E800877F8093E8008091EB0069
:1057800080628093EB00AA96E3E00C949D2C089530
:10579000CF938091C9028823A1F0C091E900CF7016
:1057A0009091EC00892F817090FD80E8C82B1092B9
:1057B000E9008091E80083FD0E94802ACF70C093A9
:1057C000E900CF91089587FB082E062687FD819575
:1057D00067FD61950E94A92C0EF4919507FC8195B7
:1057E0000895AA1BBB1B51E107C0AA1FBB1FA61728
:1057F000B70710F0A61BB70B881F991F5A95A9F77A
:1058000080959095BC01CD01089597FB072E16F465
:10581000009407D077FD09D00E94F12B07FC05D03A
:105820003EF4909581959F4F0895709561957F4FB7
:105830000895A1E21A2EAA1BBB1BFD010DC0AA1FD1
:10584000BB1FEE1FFF1FA217B307E407F50720F0E9
:10585000A21BB30BE40BF50B661F771F881F991F64
:105860001A9469F760957095809590959B01AC01AD
:10587000BD01CF010895EE0FFF1F0590F491E02DBB
:1058800009940E94492C332312F48A1B9B0B0C941D
:105890005A2CA29FB001B39FC001A39F700D811D20
:1058A0001124911DB29F700D811D1124911D089529
:1058B0000E94492CB7FF0895821B930B08950E9404
:1058C000492CA59F900DB49F900DA49F800D911D14
:1058D00011240895B7FF0C945F2C0E945F2C821B4B
:1058E000930B08952F923F924F925F926F927F9207
:1058F0008F929F92AF92BF92CF92DF92EF92FF92E0
:105900000F931F93CF93DF93CDB7DEB7CA1BDB0B8B
:105910000FB6F894DEBF0FBECDBF09942A88398830
:1059200048885F846E847D848C849B84AA84B98437
:10593000C884DF80EE80FD800C811B81AA81B98143
:10594000CE0FD11D0FB6F894DEBF0FBECDBFED0157
:105950000895991B79E004C0991F961708F0961BCB
:10596000881F7A95C9F780950895FC0141505040F1
:1059700030F001900616D1F73197CF0108958827AE
:1059800099270895FB01DC0104C08D9101908019D5
:1059900021F441505040C8F7881B990B0895FB0132
:1059A000DC0102C001900D9241505040D8F708959B
:1059B000F999FECF92BD81BDF89A992780B50895D7
:1059C000A6E1B0E044E050E00C94122DA8E1B0E074
:1059D00042E050E00C94122D262FF999FECF92BD93
:1059E00081BDF89A019700B4021639F01FBA20BDA4
:1059F0000FB6F894FA9AF99A0FBE08950396272FD6
:105A00000E94ED2C0E94EC2C252F0E94ED2C242FBF
:105A10000C94ED2C0196272F0E94ED2C0C94EC2C6D
:105A2000DC01CB01FC01F999FECF06C0F2BDE1BD5E
:105A3000F89A319600B40D9241505040B8F708954D
:105A4000F894FFCF95099509C609C609530A6F0A4C
:105A5000F509F5097A0AEB0AFA0AFA0AA42ACC2A05
:105A6000B52BCC2AB52BFF2A202BB52B772B832BDC
:105A70003C02280850011E0A140101010200060020
:105A8000060601191A1B1C1D1E1F20212226254B4C
:105A9000252A25A825A325292501E200E900EA00F9
:105AA000B500B600B700CD008301CC008A01920199
:105AB00094012102230224022502260227022A023F
:105AC000B300B4006F007000818283E200E900EA55
:105AD00000B500B600B700CD008301CC008A01926A
:105AE0000194012102230224022502260227022A10
:105AF00002B300B4006F007000818283F0F1C667CA
:105B00006636943137353497963330909192939529
:105B10000001020202020606060909090909090F25
:105B20000F0F0F0F0F151515181919191919191924
:065B3000191919232400DD
:00000001FF
