:100000000C94A8060C94E0060C94E0060C94E00610
:100010000C94E0060C94E0060C94E0060C94E006C8
:100020000C94E0060C94E0060C945A2A0C942E2BA7
:100030000C9476250C94E0060C94E0060C94E006F3
:100040000C94E0060C94E0060C94E0060C94E00698
:100050000C94E0060C94FD250C94E0060C94E0064C
:100060000C94E0060C94E0060C94E0060C94E00678
:100070000C94E0060C94E0060C94E0060C94E00668
:100080000C94E0060C94E0060C94E0060C94E00658
:100090000C94E0060C94E0060C94E0060C94E00648
:1000A0000C94E0060C94E0060C94E00635001E006B
:1000B0001F002000210022002E006D002D002300D3
:1000C00024002500260027002A002B0014001A0017
:1000D0000800150017002F00310030001C00180028
:1000E0000C00120013002800292F0400160007003E
:1000F00009000A00680069006A000B000D000E008C
:100100000F0033003400E1001D001B000600190041
:1001100005006B0052006C00110010003600370023
:100120003800E50091009000E000E200E300215279
:10013000500051004F002C0021522C41E700E600F6
:100140006E0001003A003B003C003D003E004400D0
:10015000010045003F0040004100420043004C00C8
:1001600001002D00A9002E00010001000100010086
:1001700001000100010031002F00300001000100EA
:10018000AC00AA00AB0001000100207801000100D2
:100190005000510052004F00010001000100010019
:1001A0000100010001000100010001002F520100C7
:1001B0000100010001000100010001000100010037
:1001C000010001000100010001000100AE0001007A
:1001D000AE000100007C01000100010001000100EF
:1001E0000100010001000100010001000100010007
:1001F00001000100010001000100010001000100F7
:1002000001000100010001000100010001000100E6
:1002100001000100010001000100010001000100D6
:100970000100010001000000000000000000000074
:100980000000000000000000000000000000000067
:100990000000000000000000000000000000000057
:1009A0000000000000000000000000000000000047
:1009B0000000000000000000000000000000000037
:1009C00000000000000000000000007C00000000AB
:1009D0000000000000000000000000000000000017
:1009E0000000000000000000000000000000010006
:1009F00001000100010001000100010001000100EF
:100A00000100010001000100010001001E0F0500AE
:100A1000047F3F1F643214643214783C1E1E140A93
:100A2000052223252628292A2C2D2F30323335362E
:100A3000383A3B3D3E4042434547494A4C4E50516F
:100A4000535557595A5C5E6062646668696B6D6F96
:100A500071737577797B7D7F81838587898A8C8E99
:100A600090929496989A9C9E9FA1A3A5A7A8AAACA1
:100A7000AEAFB1B3B4B6B8B9BBBCBEBFC1C2C3C5DB
:100A8000C6C7C9CACBCCCDCED0D1D2D2D3D4D5D67D
:100A9000D7D7D8D9D9DADADBDBDBDCDCDCDCDCDDB0
:100AA000DDDDDDDCDCDCDCDCDBDBDBDADAD9D9D894
:100AB000D7D7D6D5D4D3D2D2D1D0CECDCCCBCAC92C
:100AC000C7C6C5C3C2C1BFBEBCBBB9B8B6B4B3B15B
:100AD000AFAEACAAA8A7A5A3A19F9E9C9A989694F6
:100AE00092908E8C8A89878583817F7D7B797775CB
:100AF00073716F6D6B6968666462605E5C5A5957AA
:100B0000555351504E4C4A4947454342403E3D3B68
:100B10003A3836353332302F2D2C2A2928262523F2
:100B200022FFAA7F554000010101010101010101DD
:100B3000020202020202020202030303030303038E
:100B4000030404040404040405050505050606065B
:100B50000606070707070708080808090909090A18
:100B60000A0A0B0B0B0C0C0C0D0D0D0E0E0E0F0FBD
:100B70000F1010111111121213131414151516164B
:100B80001717181819191A1A1B1B1C1D1D1E1E1FBA
:100B90002020212222232424252626272829292A09
:100BA0002B2C2D2D2E2F3031323233343536373831
:100BB000393A3B3C3D3E3F4041424344454647482D
:100BC000494A4C4D4E4F50515354555658595A5B03
:100BD0005D5E5F616264656668696B6C6D6F7072A3
:100BE000737577787A7B7D7E8082838587888A8C0F
:100BF0008E8F91939596989A9C9EA0A2A3A5A7A943
:100C0000ABADAFB1B3B5B7BABCBEC0C2C4C6C9CB39
:100C1000CDCFD1D4D6D8DBDDDFE2E4E7E9EBEEF0EF
:100C2000F3F5F8FAFDFF0A035800440037003500D9
:100C300000000C0378006900750064006900000082
:100C40000403090409023B00020100A0FA090400A0
:100C500000010301010009211101000122440007E4
:100C600005810308000109040100010300000009D7
:100C70002111010001227B000705820320000112DF
:100C800001000200000008447875750100010200AF
:100C90000105010902A10185020901A10005091947
:100CA0000129081500250195087501810205010932
:100CB0003009311581257F9502750881060938159F
:100CC00081257F950175088106050C0A380215817A
:100CD000257F950175088106C0C005010980A10125
:100CE000850319012AB700150126B7009501751073
:100CF0008100C0050C0901A101850419012AA00287
:100D0000150126A002950175108100C00501090694
:100D1000A101050719E029E71500250195087501CE
:100D200081029501750881010507190029FF150049
:100D300026FF00950675088100050819012905158B
:100D4000002501950575019102950175039101C07A
:100D500011241FBECFEFDAE0DEBFCDBF04B603FE25
:100D600018C08091160390911703A0911803B091B9
:100D700019038730904BA740B04B59F410921603DB
:100D8000109217031092180310921903E0E0F8E391
:100D9000099511E0A0E0B1E0E2E5FEE502C00590B2
:100DA0000D92A23EB107D9F723E0A2EEB1E001C057
:100DB0001D92A631B207E1F70E946E160C94D32E55
:100DC0000C9400002A9A0895229A0E94E20608953F
:100DD0008F9A0895879A0E94E80608958C9808953E
:100DE000849A0E94EE0608950E94E4060E94EA0694
:100DF0000E94F0060E94201508958031B8F46530F5
:100E0000A8F44F3098F450E09FE0699F400D511DC9
:100E10001124FA019BE4899FE00DF11D1124EE0FCE
:100E2000FF1FE455FF4F85919491089581E090E074
:100E300008950E94FD06089581E008950E941C0710
:100E4000089581E008950E941C0708950E942307D9
:100E5000089508950E9429070895A6E0B0E0E3E30D
:100E6000F7E00C947F2D49835A839E833091E901EA
:100E700089819A8131111AC03E81332399F022234E
:100E800089F00E94380D182F682F89819A810E945D
:100E9000140D69817A81812F0E941C142696E3E04B
:100EA0000C949B2D0E94260D182FF3CF0E94380D15
:100EB00069817A81F1CFFC01262F408151816281C5
:100EC0007381848195810E942D070895CF93DF93CC
:100ED000EC0161E00E945B07BE010E941E07DF91EA
:100EE000CF910895CF93DF93EC0160E00E945B0700
:100EF000BE010E942A07DF91CF91089581E00895F5
:100F00000E947E070895CF93C82F0E94E90B8C2F73
:100F10000E9480072FEF84E39CE0215080409040A6
:100F2000E1F700C00000CF91089581E00E9483079F
:100F30000E942126089580E00E9483070E94452692
:100F400008950F931F93CF93DF938C0161E00E946C
:100F50005B07EC01F801858181110E94C31DB80176
:100F6000CE010E942607811106C080E0DF91CF915B
:100F70001F910F910895B801CE010E94DC238823B0
:100F8000A1F3B801CE010E941820882371F3B801A3
:100F9000CE010E94EE1F882341F3B801CE010E94CA
:100FA000E21D882311F3F8018581882361F0C330A5
:100FB000FCE7DF07E9F058F4C115ECE7DE07A9F01C
:100FC000C130DC47B9F0C8010E942107CFCFCB3533
:100FD0008CE7D807A9F0CC35ECE7DE0771F0CA350D
:100FE000DC4789F70E944F11EECF0E949507BDCFD5
:100FF0000E9457110E949B07B8CF0E944511E3CF72
:101000000E945311E0CF0E9452250E9423080895A8
:101010000E9427080E945725089581E008950895A9
:10102000CF93DF93D82F0E940D08C82F882319F083
:101030008D2F0E940F088C2FDF91CF910895089576
:101040000E941008089580E00E94200808950E94E0
:1010500025240E9420080895CF930E942524C82F9C
:101060008091E4018C1779F0C093E4010E94E2259D
:101070006093E5017093E6018093E7019093E801A6
:101080008C2F0E942008CF910895ADE0B0E0EBE4F2
:10109000F8E00C94802D488759876A877B878C8776
:1010A0009D8791110E9485101F8286E0FE0138966F
:1010B000DE01119601900D928A95E1F78D818111E3
:1010C0000DC029813A814B815C816D817E818F8148
:1010D0000E94CF0F2D96E2E00C949C2DCE0101963C
:1010E0000E9466078111EDCFF5CFFC0124812130EC
:1010F00021F4808191810E946A0D0895662329F070
:101100000E9479210E944C2208950E94D321FACF97
:10111000CF93C82F8823C9F08238C9F40E943224A3
:1011200081FD13C089E30E94E8240E94F4102FEF90
:1011300087EE93E0215080409040E1F700C000002E
:1011400089E30E94F0240E94F410CF91089583381F
:10115000A1F40E94322480FDF8CF83E50E94E824A8
:101160000E94F4102FEF81EE94E0215080409040D7
:10117000E1F700C0000083E5E4CF8438A1F40E94C9
:10118000322482FDE2CF87E40E94E8240E94F4101A
:101190002FEF81EE94E0215080409040E1F700C0B5
:1011A000000087E4CECF8CEF8C0F813A98F48C2F1F
:1011B0000E94331F8111C9CF8C2F0E94AD24882338
:1011C00029F08C2F0E94F0240E94F4108C2F0E9492
:1011D000E824B9CF80E28C0F883048F4C77081E0F2
:1011E00001C0880FCA95EAF70E946810ACCFEBE502
:1011F000EC0FE33040F4F0E0EE59FE4F808190E0D8
:101200000E944E24A2CFE8E5EC0FEB3150F4F0E061
:10121000EE0FFF1FE45DFE4F808191810E947324D9
:1012200094CF83E38C0F833108F08FCF61E08C2F54
:101230000E947E088ACF882309F456C0823879F448
:101240000E94322481FF50C089E30E94E8240E945A
:10125000F41089E30E94F0240E94F410089583386A
:1012600059F40E94322480FF3FC083E50E94E824A5
:101270000E94F41083E5EECF843859F40E943224A2
:1012800082FF32C087E40E94E8240E94F41087E4C1
:10129000E1CF9CEF980F913AE8F290E2980F9830E6
:1012A00050F4877091E001C0990F8A95EAF7892F71
:1012B0000E946E10D1CF9BE5980F933028F490E0F8
:1012C00080E00E944E24089598E5980F9B3128F401
:1012D00090E080E00E947324089593E3980F933187
:1012E00018F460E00E947E0808951F93CF93DF9367
:1012F000182FEB010E948808209739F4812F0E9453
:101300001B09DF91CF911F9108958FE99FE001970D
:10131000F1F700C000002197EFCF70E060E0893363
:1013200011F460E570E00E9475090895882321F0AA
:101330000E9468100E94F4100895882321F00E94F2
:101340006E100E94F4100895B0E0A0E0EAEAF9E01F
:101350000C94792D6C01D62FC72FFC0115810681C5
:1013600002950F700E945E10E82E8823F9F0E12E9E
:101370001123E1F08C2F807F803461F080E28D0FAB
:10138000883008F18C2F807E803221F4D230D8F062
:101390000023C9F08091D60282FF15C082E00E942E
:1013A00019110E945E1091E0E82EE926BC2EB2943D
:1013B0009FE0B922FBE0FB15B8F1EB2DF0E0EB521A
:1013C000F14D0C94392DE12CF1CF0C2F0F70C07F13
:1013D00011F00295007F112399F0002359F080E26B
:1013E0008D0F883010F0D11107C0802F0E94681037
:1013F0000E94F4108D2F5AC0802F0E947810F8CFD1
:101400008D2F0E941B09002379F080E28D0F883018
:1014100010F0D11104C0802F0E946E1003C0802FE5
:101420000E947E100E94F410EB2DE850FF0B3497C1
:1014300020F40E9425240E942008EE2089F00E94BA
:101440005A1080FD0DC0F60115820E9454100E94B2
:10145000720CC6010E94B00B0E9454100E94820CB4
:10146000CDB7DEB7E9E00C94952D2C2F2F70F22E1E
:10147000C07FC03219F0F29480EFF822DD2341F0F2
:10148000D130D1F1112309F444C00023F1F0B2CFDF
:101490008091D60282FD15C0112359F0FF2029F05A
:1014A0008F2D0E9468100E94F41080E00E9488082E
:1014B000BBCF80E00E941B09FF2009F4B5CF8F2D20
:1014C000ABCF112369F0011104C08F2D0E94960942
:1014D000ABCF013009F0A8CF8F2D0E949C10A4CF74
:1014E0000111A2CF8F2D0E949D098F2D0E94A8105F
:1014F0008F2D0E948C1098CF112321F0063008F018
:1015000093CFE3CF053008F08FCF8F2D0E949D0938
:101510008BCF0023D1F3D93349F43FEF87EE93E02B
:10152000315080409040E1F700C000008D2F0E94B4
:101530001B097ACF8C2F86958695837069F0813050
:1015400009F072CF8D2F9C2F9370111102C080E093
:1015500090E00E94732468CF8D2F9C2F93701111FF
:1015600002C080E090E00E944E245ECF612F8D2F5C
:101570000E947E0859CF8C2F8370A1F5111154CF92
:101580004D2F429546954770440F440F2D2F2F70D5
:1015900030E0042E02C0220F331F0A94E2F790E0DD
:1015A00080E0D4FF09C08FE090E002C0880F991F4F
:1015B0004A95E2F780959095C695C695C370822BA3
:1015C000932BC23049F058F4C13019F00E94420CFC
:1015D0002BCF0E94390C28CF0E944B0C25CF0E94A4
:1015E000360C22CF8695112311F08C2F8170882321
:1015F00009F41ACF4D2F429546954770440F440F7A
:101600002D2F2F7030E0042E02C0220F331F0A94BA
:10161000E2F790E080E0D4FF09C08FE090E002C0E4
:10162000880F991F4A95E2F780959095C695C695C3
:10163000C370822B932BC23049F058F4C13019F09B
:101640000E94AD0CF1CE0E94A40CEECE0E94B60C0E
:10165000EBCE0E945A0CE8CECF70112329F08C2FCC
:101660000E94720C8D2F32CF8D2F0E949D098C2FDE
:101670000E94820CD9CED23F41F160F4D03FB9F044
:10168000D13F81F0112309F443C00111B3CE8C2F57
:101690008F711FC0D33F01F1D43FA1F78091D602D3
:1016A00082FD24C08C2F8F71112311F312C01123DE
:1016B00041F0053008F0B8CE8C2F8F710E94940C49
:1016C000B3CE063008F0B0CEF7CF8C2F8F7111114A
:1016D000CFCF0E94720CA8CE112329F08C2F8F71CE
:1016E0000E94660CA1CE0E94610C9ECE112331F0A7
:1016F00063E08C2F8F710E94FB1096CE81E00E94D8
:101700001911023008F490CE82E00E9419118CCE9B
:10171000002359F0D93309F009CFEFEFF7EE23E0BA
:10172000E150F0402040E1F7FFCE8C2F8F71A0CF29
:101730000F931F93CF93DF93EC01688179818D81A3
:101740000E94750D8C010E94BF0C0E94350CB801DF
:10175000CE010E94A409DF91CF911F910F910895AE
:10176000CF93DF93EC018C81882399F0CE010E9406
:10177000A107811111C00E945E10882351F08D8154
:10178000882339F08091D60282FF03C082E00E9454
:101790001911DF91CF910895CE010E94980BCE01CF
:1017A0000E947207F6CF90E080E00E944E2490E005
:1017B00080E00E9473240E9485100E94F4100E9411
:1017C00068220E944C2208950E94F8240E94D30BA4
:1017D00008950E9475100E94E40B089592959F70E1
:1017E000963091F058F4925F9F70923058F4803F99
:1017F00019F030F4883E30F481E008959A5FF4CF18
:10180000843FD1F380E00895883EB0F3813FD1F763
:10181000F3CFFC012481222339F0808191810E9441
:101820006A0D0E94EE0B089580E00895A6E0B0E0F6
:10183000ECE1FCE00C94802D2696E2E00C949C2DCB
:10184000A7E0B0E0E6E2FCE00C94802D2796E2E011
:101850000C949C2D08950E942A0C08950E942B0C34
:101860009093150280931402089508950E942E0CFF
:1018700008952091140230911502822B932B0E941F
:101880002E0C089520911402309115028223932387
:101890000E942E0C08952091140230911502822787
:1018A00093270E942E0C08950E942A0C08950E94EE
:1018B000540C08950E94570C9093130280931202C7
:1018C000089590E080E00E945A0C089521E030E0F5
:1018D000A90102C0440F551F8A95E2F7CA010E9470
:1018E0005A0C089521E030E002C0220F331F8A9580
:1018F000E2F78091120290911302822B932B0E94A7
:101900005A0C089521E030E002C0220F331F8A955F
:10191000E2F7209530958091120290911302822374
:1019200093230E945A0C089521E030E002C0220F58
:10193000331F8A95E2F78091120290911302822759
:1019400093270E945A0C089520911202309113029D
:10195000822B932B0E945A0C0895209112023091F1
:101960001302822393230E945A0C0895209112029D
:1019700030911302822793270E945A0C08950895EC
:10198000262F277091E001C0990F2A95EAF723E0EE
:10199000769567952A95E1F7660F771F660F771F93
:1019A000FA01E60FF71F50E040E0682F70E08191E8
:1019B000DF0111979B01042E02C0369527950A94EA
:1019C000E2F7217021952827292328272C934F5FA0
:1019D0005F4F4430510559F70895A82FA77023E0B1
:1019E000969587952A95E1F7880F991F880F991F7B
:1019F000FB01E80FF91F50E040E080E0219130E06A
:101A00000A2E02C0369527950A94E2F721703327F3
:101A1000042E01C0220F0A94EAF7822B4F5F5F4F1A
:101A20004430510559F70895262F953070F48F30C2
:101A300060F4682F70E08FE0989F600D711D112495
:101A40004AEE51E0822F0E94C00C0895292F953054
:101A500068F48F3058F490E06AEE71E03FE0239F25
:101A6000800D911D11240E94ED0C089580E00895D1
:101A7000B0E0A0E0EEE3FDE00C94792D7C01009154
:101A80001202109113028091140290911502082BFA
:101A9000192BCFE0D0E0CC24C394D12CBC2EC601AE
:101AA0000C2E02C0880F991F0A94E2F7802391231D
:101AB000892B49F4219790F7B12C8B2DCDB7DEB748
:101AC000E9E00C94952DB7018C2F0E942814019702
:101AD00089F3F3CFCF93DF93EC010E94380DBE0161
:101AE0000E942814DF91CF9108951F93CF93DF9325
:101AF000EB019091E901992339F0CB010E946A0D25
:101B0000DF91CF911F910895882369F0CB010E9446
:101B1000380D182F682FCE010E94140DBE01812FA1
:101B20000E942814EDCFCB010E94260D182FF6CF6E
:101B30001F93CF93DF93C091160217E08091170295
:101B40008C1304C0DF91CF911F910895D0E01C9FAA
:101B5000F0011D9FF00D1124E85EFD4F20813181C1
:101B6000428153816481758186810E94200C219677
:101B7000C770E4CF2091500230915102409152023F
:101B80005091530260915402709155028091560217
:101B90000E94200C0895CF93DF9380915602807F9E
:101BA00009F04DC080915502882309F448C0E091A6
:101BB000160250911702C0915102D09150026091CB
:101BC00052027091530247E05E17C9F18E2F90E0E8
:101BD000E49FF0011124E85EFD4F2481222391F15E
:101BE000489FF001499FF00D1124DF01A85EBD4F11
:101BF00011962C9111972C1325C02C912D1322C0D6
:101C000015962C91159721111DC012962D913C917E
:101C1000261B370B283C3105A8F4809156028F70A3
:101C2000806180935602E25EFD4F80818F708061FB
:101C3000808380E592E00E94B00B0E94980DDF91B6
:101C4000CF910895FC013196E770BECF482F2091C7
:101C500016029091170257E0291302C080E0089500
:101C600030E0529FF001539FF00D1124E85EFD4FCC
:101C70008181681306C08081481303C0858181116A
:101C8000EECF2F5F3F4F2770E7CFA4E1B0E0EBE44A
:101C9000FEE00C94762D8C0186E0F801DE011F96A3
:101CA00001900D928A95E1F7F8018481E58090E535
:101CB000A92E92E0B92E9091540291111FC0882351
:101CC000D1F0EE20A9F0C8010E94090CF82E88235B
:101CD00079F087E0F801D50101900D928A95E1F73E
:101CE000C5010E9475080E94CB0D0E94BA0D5FC00D
:101CF000C8010E94B00BFF24F39459C0C080D1806A
:101D000082809380F09055022091520230915302CC
:101D1000A401421B530BFF2009F4F9C0483C5105B4
:101D200008F0A7C0882309F442C090915102809125
:101D30005602282F207F09F05CC09D1116C090919B
:101D40005002C91212C0E1104EC08F7080618093A2
:101D500056020E94BA0D80E592E00E94B00B80917D
:101D60005602F8018683F12C22C0E1103CC06D2D93
:101D70008C2D0E94260E6D2D8C2D0E94260EE82E95
:101D80008111F1CFCF86D88A8F8598890E946A0DFC
:101D9000292F22952F70243078F49F702230A8F0DC
:101DA0009923B9F0F8019681907F99F4FE2C8F2D3C
:101DB0006496ECE00C94922D2A5F2F70223068F02C
:101DC000C8010E94B00BEF2CF1CF992311F08823AA
:101DD00069F3805E883050F3F3CF803F38F3815F42
:101DE000833070F7E3CF8091560281608093560272
:101DF000BACF9D1113C090915002C9120FC0E110CB
:101E00000DC08683C8010E94B00B87E0F801A0E5F1
:101E1000B2E001900D928A95E1F767CFC8010E9468
:101E2000090C882309F464CFEE2009F461CF809176
:101E30005602803288F02091500230915102398749
:101E400028879B868A86909154029C871D868E8760
:101E5000CE0108960E94B00B87E0F801A0E5B2E041
:101E600001900D928A95E1F70E94CB0D0E94BA0D68
:101E700042CF90915602292F207FA1F4682D9A8A93
:101E8000898AA6017A899E2D0E94160C80E592E02F
:101E90000E94B00B87E0F50111928A95E9F70E9444
:101EA000BA0D61CF882309F482CF809151028D1140
:101EB00010C080915002C8120CC0E1100AC0968375
:101EC000C8010E94B00B87E0F50111928A95E9F7ED
:101ED0006ECFC8010E94090C882309F409CFEE20B7
:101EE00009F406CF80915602803208F4B5CF2091D4
:101EF0005002309151023A8329839C828B829091C7
:101F000054029D831E828F83CE010196A3CF483C4D
:101F10005105B8F5882309F4EECEFE2CEE2009F425
:101F2000E7CE809151028D111EC080915002C812DF
:101F30001AC08091560280FD0DC0982F907F51F0FD
:101F40008683903F09F45ECF982F907F905F8F70CB
:101F5000892B57CF87E0F801A0E5B2E001900D9200
:101F60008A95E1F724CFC8010E94090C811174CF32
:101F700080915602816080935602C8010E94B00B86
:101F800016CF682D9A8A898AA6017A899E2D0E9489
:101F9000160C87E0F50111928A95E9F7A6CEAEE01E
:101FA000B0E0E5EDFFE00C947F2D288739874A8764
:101FB0005B876C877D878E87CE0108960E94450ED1
:101FC0008823B1F06C85662341F0288539854A85E0
:101FD0005B857D858E850E94200C17E0809116021E
:101FE0009091170289133DC02E96E3E00C949B2D2F
:101FF00087E0FE013896DE01119601900D928A95D8
:10200000E1F78C85882349F32091170230E0C9015C
:10201000019687709927409116024817190699F082
:1020200097E0929FD001939FB00D1124A85EBD4F01
:10203000FE01319601900D929A95E1F78093170277
:102040000E94980DCACF0E94E90B109217021092BD
:10205000160287E0E0E5F2E0DF011D928A95E9F7DC
:10206000BCCF819FC0011124885E9D4F0E94450E08
:10207000882309F4B9CFE09116021E9FF0011124C4
:10208000E85EFD4F208131814281538164817581F9
:1020900086810E94200C8091160290E00196877044
:1020A0009927809316029ACF80915F028695869534
:1020B0008695089580915F028770089590915F02E0
:1020C000977081E009F480E0089580916B02089593
:1020D00090916B02892B80936B020895809590916B
:1020E0006B02982390936B02089510926B020895EF
:1020F00090916A02892B80936A020895809590914D
:102100006A02982390936A02089510926A020895D1
:1021100008950E948810089590916002292F282325
:1021200031F080958923809360020E948910089580
:1021300008950E949810089590916102292F2823F4
:10214000281729F0982B909361020E949910089506
:1021500090916102292F282331F080958923809363
:1021600061020E949910089580916102882329F0EC
:102170001092610280E00E94991008950F931F93BE
:10218000CF93DF930091040110910501C0916B0280
:1021900080916A02C82B80916102882331F0C82B9C
:1021A0000E94982481110E94B410F801C083C0914C
:1021B0000401D091050148E050E067E572E0CE01EE
:1021C0000E94462E892B59F088E0FE01A7E5B2E077
:1021D00001900D928A95E1F7CE010E943524DF919E
:1021E000CF911F910F9108950E94BE1008950895F8
:1021F0000E94F71008959091D60292FF11C098E0C6
:10220000899F90011124622B60935F020E94720CDF
:1022100080915F028695869586950E94F8100895B4
:102220000E94720C089510925F0280E00E94F810E4
:10223000089590915F028095892380935F02282FF3
:10224000277069F4891759F09091D60292FF07C060
:102250008695869586950E94820C0E94131108959A
:102260009091D60292FB222720F9281769F080FB73
:1022700092F99093D6028091D5029091D6020E9455
:10228000781182E00E94191108958091D60282FB94
:10229000882780F991E089270E943011089581E014
:1022A0000E943011089580E00E94301108956FEF70
:1022B0007FEF90E080E00E949E2E089590E080E005
:1022C0000E946A2E21E0853E9E4F09F020E0822F79
:1022D000089582E090E00E945C2E089583E090E0F3
:1022E0000E945C2E089584E090E00E946A2E08957A
:1022F000BC0184E090E00E949E2E0895AB01BC01D9
:102300008FE090E00E94922E0895AB01BC0183E122
:1023100090E00E94922E089560E070E0CB010E9450
:102320008511089560E070E0CB010E947E110E944B
:102330008C110895A8E0B0E0E0EAF1E10C94802D62
:1023400065EE7EEF90E080E00E949E2E60E082E0ED
:1023500090E00E94802E81E090E09093150280939F
:10236000140261E083E090E00E94802E60E074E15E
:1023700084E090E00E949E2E60E086E090E00E9463
:10238000802E60E087E090E00E94802E40E050E0E8
:10239000BA0188E090E00E94922E60E083E290E033
:1023A0000E94802E60E08CE090E00E94802E60E031
:1023B0008DE090E00E94802E19821A821B821C827E
:1023C0001D821E821F82188648E050E067E170E09F
:1023D000CE0101960E94702E40E050E0BA018FE1DC
:1023E00090E00E94922E0E9492112896E2E00C94B6
:1023F0009C2D0E949A110895682F8EE090E00E9413
:10240000802E0895A6E0B0E0E8E0F2E10C947E2D85
:102410000E94D6258C0180916C0290916D028017EC
:10242000910781F019821A820E94D625682F49816E
:102430005A81792F80E090E00E94450810936D0248
:1024400000936C022696E4E00C949A2D0E94E225FB
:1024500060937C0270937D0280937E0290937F0252
:10246000609378027093790280937A0290937B0252
:102470000895089508950E943912089508950E94BC
:102480003E1208958EE195E10E9483160E943A1251
:102490000E943B12089581E008950E944B12089516
:1024A0000E944B120895089508950E9453120E94AD
:1024B000541208950E945E11811102C00E94F91108
:1024C0000E946911809380020E9473119093D6023A
:1024D0008093D5020E949F1E0E946E1190E00E9480
:1024E000360C80911202909113020E94570C0895AD
:1024F0000E94CD250E94DE150E945A120E941F08DC
:102500000E94E31C0E943F120895A6E0B0E0EBE8B1
:10251000F2E10C94742D0E944D1281110CC00E94A6
:1025200002120E94C41D0E948A220E942C08269634
:10253000EEE00C94902D0E94F4152EE6822E22E0FF
:10254000922E640110E0F601E190F1906F01812F6D
:102550000E9425151F5F153009F44BC0E816F906D7
:1025600091F38091800281FD0E942E150E945012ED
:10257000782E10E066246394812F0E9425157C013B
:10258000F401A190B1904F018A159B0561F100E023
:10259000CC24C394D12CAE24BF24C5018C219D2111
:1025A000892BC1F07720B1F009831A830E94D625C8
:1025B0009C838B836D8221E0C7018C219D21892B17
:1025C00009F420E049815A816B817C818D81922FB1
:1025D0000E9445080F5FCC0CDD1C0F30F1F6F401B2
:1025E0003297F182E0821F5F153031F60E94261289
:1025F00098CFE816F90609F0B4CF91CF1F93CF9387
:10260000DF930E942D14EC01C11580E5D807F0F589
:10261000C11580E4D80708F09CC0C03ED10520F564
:10262000CD3CD10508F082C0C83AD10578F4C53A4E
:10263000D10508F073C0C130D10519F1209709F117
:10264000C430D105F0F4D0E0C0E01BC0C33CD105DC
:10265000D0F7C85AD0E0CC0FDD1FCB59DE4F099020
:10266000D881C02DD4640DC0C11580E2D80708F010
:10267000D1C0C11581E0D80708F05AC0C83ED105C5
:1026800010F7CE01DF91CF911F910895C03682E5FA
:10269000D80718F5C03482E5D80708F06BC0C032FF
:1026A00082E5D80708F05FC0C11582E5D80708F4B5
:1026B00097C02C2F2695269580E2289F9001112403
:1026C0008C2F8370C1E0D0E002C0CC0FDD1F8A9553
:1026D000E2F7C22BD32BDD68D4CFC03A82E5D8070E
:1026E00060F4C03882E5D80708F459C0CF71D0E053
:1026F000DC2FCC27C46FD06AC4CFC03C82E5D8079A
:1027000008F462C0C03E82E5D80708F09CCFDC2FF9
:10271000CC27CC27DF71C06FD06AB3CFC55AD0E0C9
:10272000C556DE4FC881D0E0D064ABCFD065A9CF0D
:102730008D2F0E94CF14182FCE0199270E942D149F
:10274000C12FD0E0DC2FCC27CC27DF71C82BD92BB1
:1027500098CFCE0199270E942D14CC27DF70C82B6B
:10276000D92BD06A8ECFCF71D0E0DC2FCC27C16FB0
:10277000D06A87CF2C2F26952695277080E2289F38
:10278000900111248C2F8370C1E0D0E002C0CC0FE7
:10279000DD1F8A95E2F7C22BD32BDC6872CF2C2F7A
:1027A00026952695277080E2289F900111248C2F72
:1027B0008370C1E0D0E002C0CC0FDD1F8A95E2F744
:1027C000C22BD32BDA685DCF8C2F8F710E94CF1470
:1027D000C82FD0E0DC2FCC27CC27DF71D06251CFBF
:1027E0008C2F8F710E94CF1455E0D695C7955A95BE
:1027F000E1F7CF70D0E0DC2FCC27282F30E084FF2A
:1028000005C044E0220F331F4A95E1F7C22BD32BBA
:10281000D06937CF8D2F8F710E94CF14182FCE0122
:1028200099270E942D14C12FD0E0DC2FCC27CC2774
:10283000DF71C82BD92BD2CF462F753030F46F30D3
:1028400020F4672F0E941907089590E080E0089512
:102850000E941C140E94FE12089582389105B9F15D
:10286000B0F48133910509F47DC048F489329105B3
:1028700009F46DC08A32910509F47BC0089585334F
:10288000910509F45FC08933910509F10895833EEC
:102890009105D9F138F4803E910529F1823E9105E8
:1028A00079F10895863E9105D9F1873E910509F4A5
:1028B0003EC0843E910541F52091D60221FF24C0FF
:1028C0008091D50284FD19C087EE90E00895209193
:1028D000D502237009F05AC02091D60223FF14C0FC
:1028E00089E290E008952091D50220FD38C0309112
:1028F000D60230FF09C024FF43C090E080E0089575
:102900002091D50222FDF7CF08952091D50222FD16
:102910003AC03091D60230FD39C024FFF5CFEDCF5B
:102920002091D50223FFF0CF24FDE7CFCDCF20911A
:10293000D50223FD2EC03091D60231FFEECF84EEBA
:1029400090E008952091D50225FFDECFC9CF2091D8
:10295000D50225FD21C02091D60223FFD5CF89E3E2
:1029600090E0D2CF2091D50226FFCECF8AE290E030
:1029700008952091D50226FFC7CF81E390E0089506
:1029800083EE90E0089582EE90E0089580EE90E06E
:10299000089586EE90E0089585E390E00895909183
:1029A000D50292FF10C041E0282F2471243009F095
:1029B00040E031E0282F2871283009F030E043173B
:1029C00011F02CE0822793FF10C041E0282F2471E2
:1029D000243109F040E031E0282F2871283109F036
:1029E00030E0431711F02CE082273091D60230FFFF
:1029F00010C051E0282F2171213009F050E041E052
:102A0000282F2871283009F040E0541711F029E0F0
:102A1000822731FF10C041E0282F2171213109F0B8
:102A200040E031E0282F2871283109F030E04317C9
:102A300011F029E0822794FD877E089580E00895B3
:102A4000089508950E9421150895E82FF0E0EE0FF3
:102A5000FF1FEF51FD4F808191810895089580EA15
:102A60008A95F1F7089500C008950E942F150895E2
:102A7000F894E82FE295EF70F0E031A1282F2F7045
:102A800081E090E001C0880F2A95EAF7982F909591
:102A9000932391A392A1892B82A3789408950F93F5
:102AA0001F93CF93DF93CDEAD1E089918F3F11F04F
:102AB0000E94381581E0C23BD807B9F7CEE9D1E0D2
:102AC0000DEA11E089918F3F11F00E9438150C1723
:102AD0001D07C1F7DF91CF911F910F910895AF921C
:102AE000BF92DF92EF92FF920F931F93CF93DF93EA
:102AF0008C01D62EC62FD0E0CE0183559E4F7C018F
:102B0000FC0120812F3F09F44CC0F894E22FE2959C
:102B1000EF70F0E031A12F7081E090E001C0880FEC
:102B20002A95EAF7932F982B91A392A18095892358
:102B300082A378940E943315EEE9F1E041E050E081
:102B4000B12CA12C21912F3FB1F1A22FA295AF70F2
:102B5000B0E090968C9190E02F7002C0959587958B
:102B60002A95E2F780FD27C0CA01A82AB92A440F96
:102B7000551F81E0ED3AF80729F7F70180818F3F73
:102B800011F00E94381561E0A114B10409F460E06D
:102B90008D2D0E943515CC0FDD1FC00FD11FB982BE
:102BA000A882DF91CF911F910F91FF90EF90DF905E
:102BB000BF90AF90089590E080E0D7CF0E944F156E
:102BC0008AE0E1EEF2E0DF01982F1D929A95E9F795
:102BD000E7EDF2E0DF011D928A95E9F785E00E94BA
:102BE0002F160E94F4060895AAE0B0E0EAEFF5E19E
:102BF0000C947D2D8E010F5F1F4F8AE0F80111921A
:102C00008A95E9F7F12C6F2DC8010E946F15F39496
:102C1000F5E0FF12F8CF4AE050E0B80187ED92E00E
:102C20000E94462E21E0009709F420E0892B41F014
:102C30008AE0F801A7EDB2E001900D928A95E1F7E4
:102C400045E061EE72E087ED92E00E943016182FA9
:102C50000E942215812F2A96E5E00C94992D089563
:102C6000B0E0A0E0E6E3F6E10C947A2D6C017B0184
:102C7000042FC22F222379F081E0809383020E94E7
:102C8000D625909382028093810280E0CDB7DEB793
:102C9000E8E00C94962DD0918302DD23B1F380916E
:102CA0008102909182020E94EE25059770F310E058
:102CB000000F111FA801B601C7010E94462E892BE3
:102CC00031F0A801B601C7010E94532ECD2F1092FA
:102CD00083028C2FDBCF0E94851208950E946F25FE
:102CE0000E9491270E9442120E94AB270E947812F4
:102CF0000E94B8270E94BD270E946B160E94D7270A
:102D00000E945512F7CF9093E3018093E20108955A
:102D1000EF92FF920F931F93CF93DF93EB01E82F76
:102D2000D1110EC0442321F0F0E0EA5DF44FE491AC
:102D30006E2F7E2F8E2FCDB7DEB7E6E00C94982D48
:102D40000D2F10E0282F30E0442329F02A5D344F66
:102D5000F901249130E0F6E0CF9FC0011124EFEF9C
:102D6000F0E0BF010E94EF2CAB018C2F90E0880FA8
:102D7000991FA5E5A49FB001A59F700D1124861B86
:102D8000970B982F990F980FBF01601B710B629FD3
:102D9000D001639FB00D729FB00D11248B2F9D9FAA
:102DA000B0011124672F7727EF01C61BD70BBE0197
:102DB000629FE001639FD00D729FD00D11247F01AF
:102DC000E91AF108E09EB001E19E700DF09E700DD1
:102DD0001124672F7727E61BF70BE29F8001E39F03
:102DE000100DF29F100D1124E12F722F423051056A
:102DF00099F048F44115510569F04130510581F0D1
:102E0000EB2F8D2F07C04430510569F080F046301C
:102E10005105B1F76E2F8FCFE22F7B2F812FFACF85
:102E2000E22F7D2FF7CFEB2F822F712FF3CF7B2F48
:102E3000822FED2FEFCF41E00E948816089508956C
:102E40000E941B170895CF93DF93762FE901682F17
:102E5000842F0E942017798368838A83DF91CF9122
:102E600008958091EB02982F9C7F29F483708460F1
:102E70008093EB0208958C3AE8F38370886AF8CF68
:102E8000B0E0A0E0E6E4F7E10C947A2D88E090E071
:102E90000E94642E6B017C0183E290E00E945C2E14
:102EA000282F30E040E050E060E070E080E090E00B
:102EB00000E20E94A72DB22FA32FF42FE52FD62FCB
:102EC000C72F97018601BC29A12BFE295E2F532B0A
:102ED0002B2F3A2F4F2F6D2F7C2FCDB7DEB7E8E089
:102EE0000C94962DB0E0A0E0E8E7F7E10C94762D85
:102EF00049015A016B017C010E9431178401A40130
:102F00006A2D7B2D88E090E00E94922E94014A2D3C
:102F10005B2DB601C70100E20E94C22D622F83E241
:102F200090E00E94802ECDB7DEB7ECE00C94922D9D
:102F3000EBEEF2E085E0808311828FEF8283838362
:102F40001482758125E030E04FEF5FEF60E086810D
:102F500097810E94721708958091EB0280FF03C051
:102F600086958695089580E008959091EF029330BC
:102F700018F49F5F9093EF02882391F02091EB0269
:102F80003091EC024091ED025091EE026091EF021F
:102F90007091F0028091F1029091F2020E947217FA
:102FA000089581E00E94B51708959091EF0299234A
:102FB00019F091509093EF02882391F02091EB0249
:102FC0003091EC024091ED025091EE026091EF02DF
:102FD0007091F0028091F1029091F2020E947217BA
:102FE000089581E00E94D517089560910A018091AB
:102FF000EB0280FF0FC070E08091090123E0829F07
:10300000C0011124E091DF01F091E0018D509D4F4E
:103010000995089580910B0190910C0123E0829F06
:10302000F0011124ED50FD4F891728F7118210820D
:1030300012828F5F3396F8CF9091EB0290FF0EC013
:1030400090910B0120910C0133E0939FF00111242A
:10305000ED50FD4F921718F00E94F51708958183E7
:10306000608342839F5F3396F5CFA3E0B0E0EBE34C
:10307000F8E10C94802D9091EB0290FF0AC09E0124
:103080002F5F3F4F0E9423174B8169818A810E94E5
:103090001C182396E2E00C949C2DCF93DF93EC0157
:1030A000EC81F0E0EF5DF54F4491EBEEF2E06281F0
:1030B00081810E9435188C818F5F8C83DF91CF9145
:1030C0000895CF93DF93EC01EBEEF2E04381628150
:1030D0008C810E9435188C818F5F8C83DF91CF911A
:1030E0000895A3E0B0E0E7E7F8E10C947E2D8C01B1
:1030F0008091840281110AC09E012F5F3F4F4FEFE4
:103100006FEF0E9423178A8180938402F801648103
:10311000613069F08091840240E0662361F040E014
:10312000623011F44091840280E060E004C060915C
:10313000840240E080E00E941C18F801848190E045
:10314000019663E070E00E94032D84832396E4E0FF
:103150000C949A2DA3E0B0E0E0EBF8E10C94792D0B
:10316000082FD62EF42EC22E9091EB0290FF2FC086
:10317000E92FE695E695AE2FB0E0AE54BE4F8C91A8
:103180008093AC029C7F943031F59E012F5F3F4FBE
:10319000802F0E9423174B8169818A810E941C180D
:1031A0000093EC02D092ED02F092EE02CC2079F086
:1031B0002091EB026091EF027091F002302F4D2DC3
:1031C0005F2D8091F1029091F2020E947217239676
:1031D000E9E00C94952D823019F4F090EE02E0CFE6
:1031E000863019F40091EC02DBCF8930D9F38931B4
:1031F000B9F6E9516E2F6170B62EE695F0E0EF5DFD
:10320000F44F1491E12C60910D01E61618F00E9424
:10321000F517C6CFE19EC001112470E00E94EF2C8B
:10322000802FB11014C0860F20910B01622F6E0DFC
:103230007727771F9B01220F331F260F371F2D5033
:103240003D4F4F2D6D2D0E942317E394DCCF861B3D
:10325000EBCFEBEEF2E09181282F438162818CE08D
:10326000890F0E94AA18089581E00E9429190895E3
:10327000EBEEF2E09181282F4381628184EF890F88
:103280000E94AA18089581E00E9438190895EBEE73
:10329000F2E0628129E1620F08F46FEF282F438189
:1032A00081810E94AA18089581E00E94471908951B
:1032B000EBEEF2E0628129E1621B08F460E0282F66
:1032C000438181810E94AA18089581E00E945819C3
:1032D0000895EBEEF2E043812CE0420F08F44FEF4B
:1032E000282F628181810E94AA18089581E00E949E
:1032F00069190895EBEEF2E043812CE0421B08F4DB
:1033000040E0282F628181810E94AA18089581E0FF
:103310000E947A19089520E00E94AA180895EF9259
:10332000FF921F93CF93DF93EC0110E0EE24EA9419
:10333000F12C60910D01161770F00E94F5179A811B
:103340008C8190FF27C08F5F8C83DF91CF911F917D
:10335000FF90EF90089520910B01422F410F5527C8
:10336000551FCA019A01220F331F280F391F2D50F4
:103370003D4F70E0C7010E94032D962F8C81409134
:10338000EE026091ED02199F800D11240E94231717
:103390001F5FCFCF8150D8CFB0E0A0E0E2EDF9E1E0
:1033A0000C94782DFC0182810FEF80FF01E010E08A
:1033B00046E0A42E80910D01181798F00E94F51791
:1033C00080918602013009F04FC0811102C08091C6
:1033D0000D01815080938602CDB7DEB7EAE00C94F0
:1033E000942DC0910B01C12ED12CCC0DDD2DD11D02
:1033F000CE01880F991FC80FD91FCD50DD4F1982FC
:1034000018821A8234E0E32EF12CB12C80918602CE
:103410008B0D87301CF16A2D0E94E12C892F082E1C
:10342000000C990BC816D90691F48091EE028E9D7E
:10343000A0018F9D500D11245595479555954795A1
:103440009E016091ED028091EC020E942317B00E64
:10345000F1E0EF1AF108D1F61F5FACCF87FFDFCFA5
:1034600090910D01890FDBCF90E0019660910D01E5
:1034700070E00E94032DAECF0F931F93CF93DF9385
:1034800080910B0190910C0123E0829FF0011124A7
:10349000ED50FD4F891740F1C0E0D3E060910D0180
:1034A000C61740F10E94F51720910701809185020F
:1034B000820F8093850290910801920F90930801EA
:1034C000191654F4082E000C990B40910D0141502F
:1034D000550B841795071CF0219520930701DF9168
:1034E000CF911F910F9108951182108212828F5FE8
:1034F0003396D0CF0C2F10E070E0C8010E94032D4E
:1035000020910B01820F482F50E020918502022E5E
:10351000000C330B02171307BCF020910801022E98
:10352000000C330B201731077CF08D9F9001112484
:103530002D503D4F4091EE026091ED028091EC02E2
:103540000E942317CF5FAACFFA01EE0FFF1FE40FEF
:10355000F51FED50FD4F118210821282F3CFB0E0C3
:10356000A0E0E5EBFAE10C94762DEC014C81042F00
:1035700010E09801D8010E94472D9B01AC010E94E8
:103580005D2D4B015C01E0E2F0E0E01BF10BA5E5F5
:10359000B0E0AC019B010E945D2D6B017C019F019D
:1035A000DF010E943F2D9B01AC010E94682D9B0111
:1035B000AC01280D391D4A1D5B1DC701B6010E94D3
:1035C000172DF22E822F90E039E23F1520F143E0D3
:1035D000249F9001112435952795122F109500E016
:1035E00085E5E82EEF1880910D01081718F10E946B
:1035F000F5179C8181E0992319F0903219F48FEF2F
:103600008093060180910601890F8C83CDB7DEB7C8
:10361000ECE00C94922D25E530E0B901681B790BA4
:103620009B01220F331F260F371F37FFD4CF2F5F89
:103630003F4FD1CF8E2D01FD8F2D20910B01622F99
:10364000600F7727771F9B01220F331F260F371F2D
:103650002D503D4F412F6091ED020E9423170F5FC7
:10366000C2CF0F931F93CF93DF93EC0110E000E0E4
:1036700090910D019017110609F06CF40E94F51756
:103680008C8190E00196817099278C83DF91CF9196
:103690001F910F91089520910B01A801420F511D18
:1036A0009A01220F331F240F351F2D503D4F4C819F
:1036B0006091ED028091EC0296959017110651F001
:1036C0004CF0442349F04091EE020E9423170F5F13
:1036D0001F4FCECF4423B9F340E0F7CFB0E0A0E0D6
:1036E000E4E7FBE10C94722DFC016280448081E0F0
:1036F0008483E1E2FAE07490E0EAFAE0E491C091B8
:10370000EE02C695C158D0E0CC0FDD1FCD2FDD27CE
:10371000812C75E0972EAA24AA94B12C55245A9492
:10372000E719EE2EF12C80910D01881638F00E94D9
:10373000F517CDB7DEB7E0E10C948E2DC82CD12C57
:1037400082E0861568F09C9CF0019D9CF00D112490
:10375000E957FD4F8091EC0280838091ED028183D7
:10376000411023C09C9CF0019D9CF00D1124E95751
:10377000FD4F1382128220910B01C601820F911D11
:103780009C01220F331F280F391F2D503D4F9C9C49
:10379000F0019D9CF00D1124E957FD4F428161819C
:1037A00080810E9423178394BECF9C9C80019D9CA6
:1037B000100D112409571D4FF80183818823F1F062
:1037C00081508383859DC0011124648170E00E9433
:1037D000EF2CFB01FF27EF5DF54F8491E82FE719F0
:1037E000E59DC0011124B7010E94EF2C8091EE02EB
:1037F000689FB0011124F8017283BDCF0E94292E69
:10380000B5010E94032D8C179D070CF0B4CFF2E098
:10381000F61598F40E94292EB5010E94032DF80197
:1038200080830E94292E2091ED022695622F70E060
:103830000E94032D280FF80121839C9CF0019D9C80
:10384000F00D1124E957FD4F12828091EE02893C60
:1038500058F088EC9C9CF0019D9CF00D1124E957D8
:10386000FD4F8483838387CF8431A0F784E1F2CF37
:10387000EBEEF2E020812E7F208331814281538163
:1038800064817581868197810E9472171092AD02C2
:103890000E94F51708956091EB026695669570E0B9
:1038A0004BE050E08EE091E00E94392E892B19F414
:1038B00081E08093AD020E94D6259093A60280936A
:1038C000A50208959091EB0290FF34C0937081118E
:1038D00032C094609093EB02662391F02091EB024A
:1038E0003091EC024091ED025091EE026091EF02B6
:1038F0007091F0028091F1029091F2020E94721791
:103900006091EB026695669570E04BE050E08EE0CA
:1039100091E00E94392E892BB1F01092AD0281E026
:103920008093A8024091EE026091ED028091EC023A
:103930000E948B1908958B3210F0986ACBCF880FB4
:10394000880F982BC7CF0E944B1CE9CF682F90910E
:10395000EB029695969581E0890F8B3208F081E015
:103960000E94621C089581E00E94A61C0895682FA1
:103970009091EB02969596958FEF890F09F48AE264
:103980000E94621C089581E00E94B71C089561E0C6
:103990000E94621C0895EBEEF2E0808181608083DA
:1039A000869586950E94C71C08958091EB0280FF42
:1039B00003C00E94381C08950E94CB1C089560E04B
:1039C0000E94621C08958091AB0281113CC00E944C
:1039D00040172093EB023093EC024093ED0250939A
:1039E000EE026093EF027093F0028093F1029093E5
:1039F000F2022C7FA1F40E9498170E944017209396
:103A0000EB023093EC024093ED025093EE02609390
:103A1000EF027093F0028093F1029093F2020E9401
:103A200031171092AD02E091DD01F091DE010995B0
:103A30008091EB0280FF04C0869586950E94DF1C72
:103A400081E08093AB0208950F931F93CF93DF9390
:103A50008091AD028823C1F18091AC02E091EB022C
:103A6000E695E695E81BE093A702823091F5F0E039
:103A7000E35EF54FE491CE2FD0E00DE418E18091A4
:103A8000A802882361F01092A8020E94D625909384
:103A9000A6028093A5021092AA021092A9020E9487
:103AA000D625E091A502F091A6028E1B9F0B8F3FB9
:103AB0009F4750F4EC0FFD1FF093A602E093A50280
:103AC00085EA92E0F8010995DF91CF911F910F915E
:103AD0000895863049F4F0E0E65EF54FE491CE2F8C
:103AE000D0E001E618E1CBCF893051F4E695F0E063
:103AF000E95EF54FE491CE2FD0E00FE819E1BFCF9A
:103B00008F3051F4E695F0E0EC5EF54FE491CE2F66
:103B1000D0E00CEC19E1B3CF853149F4F0E0EF5E71
:103B2000F54FE491CE2FD0E00CE31AE1A8CFC8E224
:103B3000D0E00FEA1AE1883109F4A1CF833239F4D9
:103B4000EFE0FAE0C591D49101E718E198CFC4EF16
:103B5000D1E001E31BE1843209F491CFC0EDD7E05D
:103B60000FE117E1853209F08ACF8E2F63E00E94C2
:103B7000D52CE92FF0E0E45FF54FE491CE2FD0E0B3
:103B80000EE61BE17CCF08950E94241D0895FA01E2
:103B9000811101C0FB0109950895CF93DF93C82FD0
:103BA000D62F0E94AC178C1748F00E94AC178D17C7
:103BB00028F40E94B31CDF91CF9108958C2F0E94AE
:103BC000C71CF9CF1F93CF93DF93EC01FB01158145
:103BD000111110C00E9465108272FE01E052F84778
:103BE000E531F10508F05EC0EF51F14D0C94392D2F
:103BF0000E94D51C812FDF91CF911F91089543EC36
:103C00005CE163EB7CE10E94C71DF4CF43EB5CE118
:103C100063EC7CE1F8CF43E459E164E379E1F3CF6D
:103C200044E359E163E479E1EECF45E659E164E527
:103C300079E1E9CF44E559E165E679E1E4CF47E888
:103C400059E166E779E1DFCF46E759E167E879E1D5
:103C5000DACF41EF57E161ED77E1D5CF41ED57E1A3
:103C600061EF77E1D0CF81E00E94C71CC3CF65E050
:103C700082E00E94CD1DBECF68E086E0FACF6EE004
:103C800089E0F7CF64E18FE0F4CF67E185E1F1CF20
:103C900088E1EACF62E289E1ECCF83E2E5CF6AE234
:103CA00085E2E7CF11E0A6CF869A089541B34F7B16
:103CB00051B35064EFB7F8949B01220F331F260FC6
:103CC000371F280F391F2817390741F4EFBF8FE539
:103CD00094E00197F1F700C000000895DC016D91B8
:103CE000CD0178E051BB000000C067FF41BB660F0B
:103CF000000000C000C000C041BB00C07A9591F731
:103D0000E2CF0E945711089580E00E94251581702E
:103D100008950E94F4152FEF86E791E0215080402E
:103D20009040E1F700C000000E94F4150E94841E3C
:103D3000882321F00E94811E0E94212608950E945E
:103D4000891E08958B3109F465C040F58B3071F000
:103D500078F4863009F447C020F4853059F180E0CA
:103D60000895873009F448C08830C9F781E0089584
:103D7000803109F45DC068F48E3089F7909180023B
:103D8000892F8B7F92FF84608093800282FD4CC0DC
:103D9000EDCF863159F3893149F3E1CF8A3201F110
:103DA00060F48732B1F020F48E31C8F28D514CC0EE
:103DB0008932A9F60E949507D9CF833440F48A331B
:103DC00008F041C0853329F0883381F2C8CF8334AD
:103DD00031F681E090E00E94360C0E94E90BC6CFDC
:103DE0000E94F911C3CF80918002807F809380026E
:103DF00081E08093B102089590918002892F8E7F97
:103E000090FF81608093800280FDB0CF817F80939E
:103E10008002ACCF90918002892F8D7F91FF8260CC
:103E20008093800281FFA2CF809180028160EFCFDA
:103E300090918002892F877F93FF88608093800212
:103E400083FDF2CF93CF895321E030E0A90102C076
:103E5000440F551F8A95E2F7CA01BDCF80E008954F
:103E60000E942E1F0895CF93C82F8091B1028130F8
:103E7000B9F0882331F08230A1F11092B10280E0D4
:103E80000DC00E9465108232D1F78C2F0E942E1F28
:103E900081111BC08C2F0E94A21E8170CF910895AA
:103EA0000E946510823289F38C2F0E94301F81118D
:103EB0000AC0C43199F060F4CB3029F0C03169F701
:103EC00082E08093B10281E0E8CF81E090E0E5CF2D
:103ED000C93221F0C833B9F380E0DFCF1092B102CC
:103EE000FBCFC93209F440C0F0F4C431E9F1A8F4C1
:103EF00081E0C73099F68093200184E180931F010F
:103F00008AE080931E018EE180931D0188E08093FA
:103F10001A0188E28093190104C082EE8C0F8A3066
:103F200070F181E0BBCFC03509F450C0B8F48AE02D
:103F3000CF34B9F7E091AE02F091AF02309789F338
:103F40002081082E000C990B820F911D8F3F910547
:103F500009F00CF43FC08FEF8083E3CFC135C1F18E
:103F600081E0C23539F39ACF8091B0028823C9F23B
:103F70001092B0021092AF021092AE02D2CFCD5189
:103F8000C093B002C330C9F048F4C13099F08FE15A
:103F900091E0C23051F01092B002C3CFC53099F019
:103FA00078F089E191E0C630B1F79093AF02809349
:103FB000AE02B7CF80E291E0F8CF8EE191E0F5CF8D
:103FC0008DE191E0F2CF8AE191E0EFCF86EFB2CFC1
:103FD0008FEFB0CF97FFC0CF1082A3CFCF93DF93E7
:103FE000EB0186319C4711F50E9465109D81992354
:103FF00099F08A7A91E009F490E09093B2028111ED
:1040000009C089E20E94E8240E94F41080E0DF9158
:10401000CF91089585E3F6CF8091B202811104C05B
:1040200089E20E94F024F0CF85E3FBCF81E0EFCF5F
:10403000CF93DF93EC01FB018581882309F4D2C083
:104040009E0130572332310508F0B2C00E9473112F
:104050009093D6028093D502FE01E150F047E23200
:10406000F10520F4EA50F14D0C94392D8091D502E0
:1040700081608093D50293C08091D602886080933E
:10408000D6028DC08091D5028260F3CF8091D50297
:104090008460EFCF8091D5028860EBCF8091D6020B
:1040A0008160EDCF8091D6028260E9CF8091D50208
:1040B0008061DFCF8091D5028062DBCF8091D50215
:1040C0008064D7CF0E94E90B8091D5028068D1CF60
:1040D0008091D5028C60CDCF8091D6028360CFCF06
:1040E0008091D5028E7FC5CF8091D602877FC7CFC2
:1040F0008091D5028D7FBDCF8091D5028B7FB9CFC6
:104100008091D502877FB5CF8091D6028E7FB7CFC1
:104110008091D6028D7FB3CF8091D5028F7EA9CFBB
:104120008091D5028F7DA5CF8091D5028F7BA1CFC5
:104130000E94E90B8091D5028F779BCF8091D502A9
:10414000837F97CF8091D6028C7F99CF8091D502C3
:1041500082FB992790F921E0922790FB82F990FB4E
:1041600083F987CF8091D602982F909591708E7F9A
:10417000892B90FB81F983CF9091D502892F8F7B7A
:1041800096FF806476CF0E94E90B9091D502892F2B
:1041900097FB87F980586DCF81E00E94FC118091D8
:1041A000D5029091D6020E9478110E94E90B80E01E
:1041B000DF91CF91089580E0F0CF9091D502892FC3
:1041C0008F7E94FF806155CF9091D502892F8E7F8D
:1041D00090FF81604ECF9091D602892F877F93FF09
:1041E00088604DCF81E0E4CF282F35EB2303C00159
:1041F000112497FF04C080589109892F0895805891
:104200009F4FFBCF8091B90280FF0DC060911E01CE
:1042100070E0660F771F6038710570F561157105E4
:1042200069F1862F089581FF07C060911E0184E027
:10423000689FB0011124EFCF60911E0182FD0AC07A
:104240008091B8028823A9F020911D0160911E0180
:10425000821710F088E0ECCF869FC001112433E074
:10426000880F991F3A95E1F7622F70E00E94032DA5
:10427000D2CF68E070E0D5CF8FE7089581E0089550
:104280008091B90280FF0CC060911A0170E07595B1
:104290006795759567956115710549F1862F0895A4
:1042A00081FF06C060911A0170E075956795F3CFA4
:1042B00060911A0182FD0BC09091B7029923A1F081
:1042C0006091190180911A01961738F0682F70E0FB
:1042D0006038710500F38FE70895899FC0011124AC
:1042E00070E00E94032DF4CF61E070E0D7CF81E051
:1042F00008958D3C31F40E94022181958093BD0286
:1043000008958E3C19F40E940221F8CF8F3C31F4BD
:104310000E94022181958093BC020895803D19F48A
:104320000E940221F8CF893D29F40E944021809308
:10433000BE0208958A3D21F40E9440218195F7CF65
:104340008B3D31F40E94402181958093BF020895F6
:104350008C3D19F40E944021F8CF9FE2980F9830CD
:1043600070F4815D990B21E030E001C0220F8A9545
:10437000EAF78091BB02822B8093BB0208958D3DAA
:1043800031F48091B90281608093B90208958E3D25
:1043900021F48091B9028260F7CF8F3DB9F7809107
:1043A000B9028460F1CF4091BC028D3C59F48091F8
:1043B000BD0287FF0DC01092BD0241110BC01092CB
:1043C000B80208C08E3C81F48091BD0218169CF39F
:1043D000442381F08091BE029091BF02892B09F0A5
:1043E0005AC01092B70208958F3C49F447FFF0CFAE
:1043F0001092BC028091BD028111ECCFE0CF803DD4
:1044000019F41416ACF3E4CF9091BE02893D29F45F
:104410001916F4F61092BE02DBCF8A3D19F497FF0D
:10442000D7CFF8CF9091BF028B3D29F497FFD0CF23
:104430001092BF02CDCF8C3D19F41916CCF3C8CF22
:104440009FE2980F983090F4815D990B21E030E065
:10445000B90102C0660F771F8A95E2F7CB018095FC
:104460009091BB0289238093BB02B2CF8D3D31F482
:104470008091B9028E7F8093B902AACF8E3D21F43C
:104480008091B9028D7FF7CF8F3D09F0A1CF809148
:10449000B9028B7FF0CF08950E94D6259C019091A0
:1044A000BC028091BD02982B21F03093B60220937C
:1044B000B5029091BE028091BF02982B21F03093FB
:1044C000B4022093B3028AEB92E00E944024089544
:1044D00086E0EAEBF2E0DF011D928A95E9F710929F
:1044E000B8021092B7021092B9020895FC018281BD
:1044F00081110EC0838181110BC08481811108C09C
:1045000091E08581811101C090E0892F817008952B
:1045100081E0FCCFA6E0B0E0E0E9F2E20C947F2D70
:1045200086E0EAEBF2E0DE01119601900D928A95A9
:10453000E1F71092BC021092BD021092BE021092DE
:10454000BF028B819C81892B89F08091B50290916B
:10455000B6020E94EE25AC019091B8029923C9F1F0
:1045600080911F018417150608F440C08D819E813B
:10457000892B91F08091B3029091B4020E94EE25B4
:10458000AC019091B702992309F46AC080911B0194
:104590008417150608F472C0BE016F5F7F4F8AEB67
:1045A00092E00E940325811105C08AEB92E00E94EF
:1045B000762281110E944C2286E0FE013196AAEB00
:1045C000B2E001900D928A95E1F72696E3E00C9413
:1045D0009B2D209120018AE0289F9001112424170F
:1045E000350720F69F5F9093B80202C09F3FD1F736
:1045F0001B81112359F00E9402219FEF11160CF428
:1046000091E0899F802D11248093BC021C8111238D
:1046100059F00E9402219FEF11160CF491E0899F3E
:10462000802D11248093BD028091BC02882309F45F
:104630009DCF1091BD02112309F498CF0E94F42060
:10464000882351F08093BC02812F0E94F42088239C
:1046500029F08093BD028ACF81E0F4CF81E0F9CFC9
:1046600020911C018AE0289F90011124241735070E
:1046700008F092CF9F5F9093B70202C09F3FD1F79F
:104680001D81112359F00E9440219FEF11160CF457
:1046900091E0899F802D11248093BE021E811123F9
:1046A00059F00E9440219FEF11160CF491E0899F70
:1046B000802D11248093BF028091BE02882309F4CB
:1046C0006BCF1091BF02112309F466CF0E94F42032
:1046D000882351F08093BE02812F0E94F42088230A
:1046E00029F08093BF0258CF81E0F4CF81E0F9CF69
:1046F0000F931F93CF93DF93C42FD22FFC0185819B
:104700008823C9F04093C2020E94D6259093C1022B
:104710008093C00280E28C0F883040F4C77081E043
:1047200001C0880FCA95EAF70E949609DF91CF91E0
:104730001F910F9108951091C202141332C08091FD
:10474000C0029091C1020E94EE25883C910548F577
:10475000C0E2CD0F1D17B9F080E2810F883040F420
:10476000177081E001C0880F1A95EAF70E949D0931
:10477000C83048F481E09D2F977001C0880F9A954A
:10478000EAF70E949609802F0E948D09C83070F6C2
:10479000D77081E001C0880FDA95EAF70E949D0981
:1047A000C5CF80E28C0F883008F6C77081E001C069
:1047B000880FCA95EAF7F2CF0F93DB0188519C4727
:1047C00087309105A0F5FC01E85EF04D0C94392D81
:1047D00006E221EE41EE6AE17CE7CD010E947823FA
:1047E00080E00F91089507E225EE45EE6BE17CE74E
:1047F000F4CF06E221EE40EE68E17CE7EECF07E27F
:1048000025EE44EE69E17CE7E8CF06E221EE42EED8
:104810006CE17CE7E2CF07E225EE46EE6DE17CE756
:10482000DCCF08E221E045EE6EE17CE7D6CF1596BD
:104830008C91882319F01092C202D3CF81E0D1CF9E
:104840009093C8028093C7020895E091C702F09147
:10485000C802309729F00190F081E02D0995089564
:1048600080E008950E9425240895E091C702F09108
:10487000C802309721F00280F381E02D0995089558
:10488000E091C702F091C802309739F022E0DC01D4
:104890002C930680F781E02D09950895A3E0B0E000
:1048A000E4E5F4E20C94802D2091C5023091C6021B
:1048B00028173907A1F09093C6028093C502E091B2
:1048C000C702F091C802309751F023E029839B83FF
:1048D0008A830084F185E02DCE0101960995239607
:1048E000E2E00C949C2DA3E0B0E0E9E7F4E20C9444
:1048F000802D2091C3023091C40228173907A1F0FE
:104900009093C4028093C302E091C702F091C80261
:10491000309751F024E029839B838A830084F185BA
:10492000E02DCE01019609952396E2E00C949C2D92
:1049300040910401509105019A012E5F3F4F485F5D
:104940005F4F80E02417350709F40895F90191912C
:104950009F019923B9F38F5FF5CF882371F02091E0
:10496000040130910501F9013296285F3F4F919182
:10497000981729F0E217F307D1F780E0089581E056
:1049800008959C01FC0132969FEF80E0419146170B
:1049900051F09F3F19F4411101C0982F8F5F86306D
:1049A000A9F79F3F09F40895290F311D97FD3A9506
:1049B000F90162830895FC0132960896219126132D
:1049C00003C0DF0111971C92E817F907B9F70895A2
:1049D000682F80910401909105010E94C1240895DF
:1049E000682F80910401909105010E94DB240895B5
:1049F000E0910401F0910501329686E0DF011D92FD
:104A00008A95E9F70895DC01FB0111969C911197B5
:104A10008181981322C012968C911297882319F0E5
:104A2000928189131AC013968C911397882319F0D9
:104A30009381891312C015968C911597882319F0CC
:104A4000958189130AC014969C91992321F081E0E5
:104A50002481291303C080E001C081E081700895A2
:104A600008950E9430250895811106C081E0809349
:104A7000C9020E943125089582E0F9CF83E0809336
:104A8000C9020E94312508950E943425089581E0CD
:104A90008093C9020E94312508950E9447250895F8
:104AA000089508950E9451250895089508950E943B
:104AB00050250895CF930E9455250E94F4150E9419
:104AC0005625C0E08C2F0E942515892B31F4CF5F2D
:104AD000C530C1F780E0CF91089581E0FCCF85B764
:104AE000806885BF85B7806885BF08951F921FB60F
:104AF0001F9211248F939F93AF93BF938091CA020B
:104B0000811113C08091050390910603A0910703C2
:104B1000B09108034196A11DB11D809305039093A8
:104B20000603A0930703B0930803BF91AF919F9131
:104B30008F911F901FBE1F90189580910D03843098
:104B400031F10E9403081092CA0288E190E020E44B
:104B50000FB6F894A895809360000FBE2093600074
:104B600083B7817F846083BF83B7816083BF78947C
:104B7000889583B78E7F83BF0FB6F894A8958091F0
:104B80006000886180936000109260000FBE0895FD
:104B90000E94E90B0E940808089582E084BD93E01A
:104BA00095BD9AEF97BD80936E0008952FB7F89446
:104BB0008091050390910603A0910703B09108032B
:104BC0002FBF08952FB7F8946091050370910603E5
:104BD00080910703909108032FBF08959C014FB760
:104BE000F8948091050390910603A0910703B0917A
:104BF00008034FBF821B930B089578941F921FB632
:104C00001F9211248F939F93AF93BF9380910503BD
:104C100090910603A0910703B09108030196A11D8E
:104C2000B11D8093050390930603A0930703B093EF
:104C30000803BF91AF919F918F911F901FBE1F904E
:104C4000189581E08093E00080E28093D800109274
:104C5000C9008FE19EE40197F1F700C0000087E0F2
:104C600090EBDC018093160390931703A093180335
:104C7000B093190388E19CE00FB6F894A89580934F
:104C800060000FBE90936000FFCF88E19CE00FB6FC
:104C9000F894A895809360000FBE90936000FFCFBA
:104CA0008091D302089508959B01BA0190910D035C
:104CB0009430E9F48F708093E9009FEF8091E800D1
:104CC000915085FD06C085ED8A95F1F700009111A0
:104CD000F5CF8091E80085FF0AC050E040E0C901AF
:104CE0000E944E288091E8008E778093E800089516
:104CF00043E050E0BC0182E00E945426089546E063
:104D000050E0BC0182E00E9454260895CF93DF93C7
:104D1000EC0148E050E0BC0181E00E94542688E0AC
:104D2000FE01ABECB2E001900D928A95E1F7DF91C4
:104D3000CF91089580910C03811109C00E94DE2952
:104D40000E943B2A8091E20084608093E2000895F3
:104D500010920C0308950E9447250895609109035D
:104D600081E0611101C080E00E943E25089590918C
:104D70000D0381E0943009F080E0609109030E9406
:104D80004425089542E061EC81E00E945A2942E204
:104D900061EC82E00E945A2990910D0381E09430E9
:104DA00009F080E0609109030E9434250895809104
:104DB0000F03833009F461C030F48130D1F18230C7
:104DC00009F49EC008958A3009F48AC08B3009F432
:104DD0006FC0893009F050C080910E03813209F014
:104DE0004BC08091120390911303029708F044C0C6
:104DF0008091E800877F8093E8008091E80082FF3F
:104E000037C09091F3008091F200029731F48091C5
:104E1000F100813011F0863021F48091F10080930F
:104E2000D3028091E8008B778093E8000E948E295E
:104E300023C080910E03813AF9F48091E800877FC6
:104E40008093E8008091120390911303892B61F401
:104E500068E08BEC92E070E00E949D288091E80071
:104E60008B778093E800089560E090E080E0F3CFD6
:104E700080910D038111C1CF089580910E03813A75
:104E8000D9F78091120390911303892BA9F7809190
:104E9000E800877F8093E8008091E80080FFFCCFE6
:104EA00080912B018093F1008091E8008E77BCCF38
:104EB00080910E03813201F78091120390911303C8
:104EC000892BD1F68091E800877F8093E8000E94CB
:104ED0008E298091100380932B010E94E90B089585
:104EE00080910E03813241F68091E800877F8093A4
:104EF000E8000E948E29809111038093D4020895C6
:104F000080910E03813A09F0B7CF8091E800877F46
:104F10008093E8008091E80080FFFCCF8091D4026C
:104F2000C1CF84B7877F84BF0FB6F894A8958091CE
:104F30006000886180936000109260000FBE80E87E
:104F400090E00FB6F89480936100909361000FBEDB
:104F50000E944D2508950E94DE290E943B2AE2EE20
:104F6000F0E080818460808378940E94BA2C089558
:104F700081E291E00E942024089580910D03853004
:104F800031F480910D03853019F00E94C8250895F1
:104F90000E949D250E945A25882399F380910B0336
:104FA000882379F30E9438280E94E90BEACF0895FC
:104FB0009A0140911403509115030E94E02708952F
:104FC000492F55274330510519F168F441305105F7
:104FD00009F444C04230510509F445C090E080E036
:104FE00050E040E025C04132510549F142325105BF
:104FF000A9F784E490E04CE05DE061157105C1F033
:105000008BE790E041E95CE06130710589F0E6CF23
:1050100099278130910581F0009729F00297F1F6E8
:10502000E6E2FCE002C0E0E4FCE0849190E0AF0145
:10503000F901518340830895E2E3FCE0F6CF89E073
:1050400090E046E55CE06115710591F389E090E040
:105050004FE65CE06130710559F3C0CF82E190E02A
:105060004FE75CE0E5CF8BE390E044E45CE0E0CF29
:1050700080E189BD82E189BD09B400FEFDCF809148
:10508000D8008F7D8093D8008091E000826080936B
:10509000E0008091E00081FDFCCF0895AF92BF92C7
:1050A000CF92DF92FF920F931F93CF93DF936C0108
:1050B000EB018A010E94AD29F82E811123C0011550
:1050C000110539F0F80180819181C81BD90BC80EF8
:1050D000D91EB12CA12C2097A9F08091E80085FD64
:1050E00022C08091E8008E778093E80001151105B9
:1050F000A1F0F80180819181A80EB91EB182A08231
:1051000085E0F82E8F2DDF91CF911F910F91FF90A9
:10511000DF90CF90BF90AF9008950E94AD29882373
:10512000D1F2F82EEFCFF60181916F018093F1005B
:105130002197FFEFAF1ABF0ACECFFC018091140375
:105140009091150386179707A0F06115710529F452
:105150009091E8009E779093E80090E061157105CA
:1051600051F4911108C08091E80082FF34C080E0C2
:105170000895BC01F2CF80910D038823C1F18530E1
:10518000C1F18091E80083FD30C08091E80082FD8C
:10519000EACF8091E80080FFE1CF8091F300209179
:1051A000F200382F6115710519F02830310558F0DB
:1051B00091E02830310509F090E02091E8002E7749
:1051C0002093E800CBCF81918093F1006150710969
:1051D0002F5F3F4FE7CF80910D03882341F085304B
:1051E00041F08091E80083FFBECF81E0089582E026
:1051F000089583E00895FC018091140390911503B4
:1052000086179707A0F06115710529F48091E800D1
:105210008E778093E80090E06115710551F491114B
:1052200008C08091E80082FF35C080E00895BC018D
:10523000F2CF80910D038823C9F18530C9F18091A7
:10524000E80083FD31C08091E80082FDEACF8091C3
:10525000E80080FFE1CF8091F3002091F200382F29
:105260006115710519F02830310558F091E02830AA
:10527000310509F090E08091E8008E778093E80096
:10528000CBCF84918093F1003196615071092F5FEB
:105290003F4FE6CF80910D03882341F0853041F0E8
:1052A0008091E80083FFBDCF81E0089582E00895FA
:1052B00083E00895982F973028F08F708093E9004D
:1052C00081E008959093E900242F762F50E09817FD
:1052D00031F07091EC002091ED005091F00021FD33
:1052E00002C09F5FE8CF3091EB003E7F3093EB0030
:1052F0003091ED003D7F3093ED003091EB00316057
:105300003093EB007093EC002093ED005093F0008D
:105310002091EE0027FDE5CF80E0089580910E03F7
:1053200087FF13C08091E80082FF06C08091E800EB
:105330008B778093E80004C080910D038111F2CF38
:10534000089580910D038823D9F38091E80080FFB0
:10535000F8CF8091E8008E77ECCF2091E400309177
:10536000E50095E6A9012091EC00822F817020FFD5
:1053700006C08091E80080FF06C080E0089520917B
:10538000E80022FD1AC080910D03882389F0853042
:1053900089F08091EB0085FD0FC02091E4003091F1
:1053A000E50042175307F9F29150E1F684E00895C1
:1053B00082E0089583E0089581E008950E944D2AD7
:1053C0000E94552AE0EEF0E0808181608083E8ED64
:1053D000F0E080818F77808319BCA7EDB0E08C91DD
:1053E0008E7F8C9380818F7E808310920C03089532
:1053F0000F931F93CF93DF930E944D2A0E94552A4B
:10540000C8EDD0E088818F77888388818068888321
:1054100088818F7D888319BC10920D031092090337
:1054200010920B0310920A0300EE10E0F801808145
:105430008B7F808388818160888342E060E080E0A8
:105440000E945A29E1EEF0E080818E7F8083E2EEB7
:10545000F0E0808181608083808188608083F801B2
:1054600080818E7F8083888180618883DF91CF9166
:105470001F910F910895E8EDF0E080818F7E808389
:10548000E7EDF0E080818160808384E082BF81E08D
:1054900080930C030E94F8290895E8EDF0E08081E4
:1054A0008E7F80831092E20008951092DA001092AD
:1054B000E10008951F920F920FB60F9211242F93BF
:1054C0003F934F935F936F937F938F939F93AF938C
:1054D000BF93EF93FF938091E10082FF0BC0809117
:1054E000E20082FF07C08091E1008B7F8093E100A2
:1054F0000E94B92C8091DA0080FF19C08091D800F9
:1055000080FF15C08091DA008E7F8093DA00809151
:10551000D90080FF96C080E189BD82E189BD09B4D0
:1055200000FEFDCF81E080930D030E949A268091BA
:10553000E10080FF19C08091E20080FF15C08091DA
:10554000E2008E7F8093E2008091E2008061809390
:10555000E2008091D80080628093D80019BC85E079
:1055600080930D030E94AE268091E10084FF2BC042
:105570008091E20084FF27C080E189BD82E189BD7E
:1055800089B5982F917080FFFBCF8091D8008F7DD7
:105590008093D8008091E1008F7E8093E10080911C
:1055A000E2008F7E8093E2008091E2008160809330
:1055B000E20080910903882309F449C084E08093C4
:1055C0000D030E94B7268091E10083FF29C08091DE
:1055D000E20083FF25C08091E100877F8093E10096
:1055E00082E080930D03109209038091E1008E7F89
:1055F0008093E1008091E2008E7F8093E2008091B1
:10560000E20080618093E20042E060E080E00E947E
:105610005A298091F00088608093F0000E94AB26A8
:10562000FF91EF91BF91AF919F918F917F916F917A
:105630005F914F913F912F910F900FBE0F901F9050
:10564000189519BC10920D030E94A82670CF809166
:10565000E30087FD93E090930D03B3CF1F920F9269
:105660000FB60F9211242F933F934F935F936F9335
:105670007F938F939F93AF93BF93CF93DF93EF93DA
:10568000FF93D091E900DF708091EC00C82FC170CA
:1056900080FDC0E81092E9008091F000877F809340
:1056A000F00078940E94722B1092E9008091F00033
:1056B00088608093F000CD2BCF70C093E900FF91FC
:1056C000EF91DF91CF91BF91AF919F918F917F919A
:1056D0006F915F914F913F912F910F900FBE0F905F
:1056E0001F901895AAE2B0E0E8E7FBE20C947F2D4A
:1056F0008EE093E02091F100FC012193CF01F3E0D3
:1057000086319F07B9F70E94D7268091E80083FF72
:105710001EC180910E0390910F039A3008F017C1BB
:10572000E92FF0E0E15EF04D0C94392D803899F0CE
:10573000823809F00CC1809112038F70873008F015
:1057400006C18093E9008091EB0085FB882780F9F2
:105750001092E90006C080910A0390910B03911109
:1057600082609091E800977F9093E8008093F10029
:105770001092F1008091E8008E77E5C0882309F44B
:10578000D3C0823009F0E3C0809110038111D6C0EC
:10579000809112038F702FEF280F263008F0D7C0AA
:1057A0008093E9002091EB0020FFC8C0933031F4D2
:1057B0008091EB0080628093EB00C0C09091EB0081
:1057C00090619093EB0021E030E001C0220F8A95B8
:1057D000EAF72093EA001092EA008091EB008860DB
:1057E000EACF8111B4C0109110031F778091E300BC
:1057F0008078812B8093E3008091E800877F8093FD
:10580000E8000E948E298091E80080FFFCCF809103
:10581000E30080688093E30082E0111183E08093CD
:105820000D0395C08058823008F091C0809110031C
:10583000909111038C3D23E09207A1F583E08A83C8
:105840008AE289834FB7F894DE01139620E03EE0A8
:1058500051E2E32FF0E050935700E49120FF03C0A2
:10586000E295EF703F5FEF708E2F90E0EA30C0F06E
:10587000C7968D939D932F5F243159F74FBF809129
:10588000E800877F8093E8006AE270E0CE0101962D
:105890000E949D288091E8008B778093E80057C094
:1058A000C096E7CF6091120370911303AE014F5F72
:1058B0005F4F0E94D827BC01892B09F448C0909102
:1058C000E800977F9093E80089819A810E94FB28E5
:1058D000E1CF8038E1F58091E800877F8093E80090
:1058E000809109038093F10045CF811130C09091E0
:1058F0001003923060F58091E800877F8093E80084
:10590000909309030E948E2980910903882311F046
:1059100084E005C08091E30087FDFACF81E08093A9
:105920000D030E94C22613C080911003813079F4C8
:1059300081E0933009F080E080930B031092E9003E
:105940008091E800877F8093E8000E948E298091F3
:10595000E80083FF0AC08091E800877F8093E80019
:105960008091EB0080628093EB00AA96E3E00C94B8
:105970009B2D0895CF9380910D038823A1F0C091B2
:10598000E900CF709091EC00892F817090FD80E844
:10599000C82B1092E9008091E80083FD0E94722BD1
:1059A000CF70C093E900CF910895991B79E004C0AE
:1059B000991F961708F0961B881F7A95C9F780954E
:1059C000089587FB082E062687FD819567FD619562
:1059D0000E94D52C0EF4919507FC81950895AA1B81
:1059E000BB1B51E107C0AA1FBB1FA617B70710F0CA
:1059F000A61BB70B881F991F5A95A9F780959095FC
:105A0000BC01CD01089597FB072E16F4009407D032
:105A100077FD09D00E94EF2C07FC05D03EF490954D
:105A200081959F4F0895709561957F4F0895A1E2EC
:105A30001A2EAA1BBB1BFD010DC0AA1FBB1FEE1F08
:105A4000FF1FA217B307E407F50720F0A21BB30B53
:105A5000E40BF50B661F771F881F991F1A9469F7CF
:105A600060957095809590959B01AC01BD01CF012B
:105A70000895EE0FFF1F0590F491E02D09940E9408
:105A8000472D332312F48A1B9B0B0C94582DA29F95
:105A9000B001B39FC001A39F700D811D1124911D02
:105AA000B29F700D811D1124911D08950E94472DF4
:105AB000B7FF0895821B930B08950E94472DA59F61
:105AC000900DB49F900DA49F800D911D11240895F9
:105AD000B7FF0C945D2D0E945D2D821B930B0895E2
:105AE0002F923F924F925F926F927F928F929F92EE
:105AF000AF92BF92CF92DF92EF92FF920F931F93DC
:105B0000CF93DF93CDB7DEB7CA1BDB0B0FB6F8948C
:105B1000DEBF0FBECDBF09942A88398848885F84CC
:105B20006E847D848C849B84AA84B984C884DF803D
:105B3000EE80FD800C811B81AA81B981CE0FD11D21
:105B40000FB6F894DEBF0FBECDBFED010895002E55
:105B5000083090F0982F872F762F652F542F432FE2
:105B6000322F22270850F4CF220F331F441F551F16
:105B7000661F771F881F991F0A95B2F7002D089599
:105B800097FD1094002E083098F00850232F342FE2
:105B9000452F562F672F782F892F912DF4CF1594ED
:105BA0009795879577956795579547953795279555
:105BB0000A95AAF71124002D08958F929F92AF9213
:105BC000BF92CF92DF92EF92FF92CF93DF93EC01DF
:105BD000688179818A819B816115710581059105B3
:105BE00021F464E279ED8BE597E02DE133EF41E0BC
:105BF00050E00E94B42E49015A019B01AC01A7EA72
:105C0000B1E40E945D2D6B017C01ACEEB4EFA50107
:105C100094010E946B2DDC01CB018C0D9D1DAE1DEE
:105C2000BF1DB7FF03C00197A109B04888839983BE
:105C3000AA83BB839F77DF91CF91FF90EF90DF9096
:105C4000CF90BF90AF909F908F9008950E94DD2DD0
:105C5000089580E091E00E94DD2D0895B0E0A0E07D
:105C60008093000190930101A0930201B09303017E
:105C70000895FC014150504030F001900616D1F7D4
:105C80003197CF010895882799270895FB01DC01FA
:105C900004C08D910190801921F441505040C8F703
:105CA000881B990B0895FB01DC0102C001900D9245
:105CB00041505040D8F70895F999FECF92BD81BD6B
:105CC000F89A992780B50895A6E1B0E044E050E045
:105CD0000C94A62EA8E1B0E042E050E00C94A62E71
:105CE000DC01A40FB51F4150504048F0CB01840F98
:105CF000951F2E910E94812E41505040D0F708955B
:105D0000262FF999FECF92BD81BDF89A019700B474
:105D1000021639F01FBA20BD0FB6F894FA9AF99A14
:105D20000FBE08950396272F0E94812E0E94802E79
:105D3000252F0E94812E242F0C94812E0196272F2F
:105D40000E94812E0C94802EDC01CB01FC01F9997C
:105D5000FECF06C0F2BDE1BDF89A319600B40D92B7
:105D600041505040B8F70895052E97FB1EF400945B
:105D70000E94CB2E57FD07D00E94172D07FC03D0A1
:105D80004EF40C94CB2E50954095309521953F4F75
:105D90004F4F5F4F089590958095709561957F4F17
:105DA0008F4F9F4F0895F894FFCFE509E509350A15
:105DB000350A9A0AB60A140A140ABB0A2C0B3B0BC2
:105DC0003B0BF81DFF1D061E0B1E101E151E1A1E76
:105DD0001F1E241E291E2E1E331E371E3C1E3F1E54
:105DE000421E451E481E4A1E4D1E4F1E7020E420B6
:105DF0007820422046207C204A2080208C2056207B
:105E0000DD205A2090205E209420BC206220982023
:105E1000C32068209E20A6204E2084205220882067
:105E20006C20A220B220CC20DB203C207420EB2070
:105E3000F923FF23E823F32305240B241124962BB5
:105E4000BE2BA72CBE2BA72CF12B122CA72C692C18
:025E5000752CAF
:105E520001000000620201010200060006060119AB
:105E62001A1B1C1D1E1F202122280850011E0A1465
:105E7200015026862653267F26782601E200E90075
:105E8200EA00B500B600B700CD008301CC008A015C
:105E920092019401210223022402250226022702F2
:105EA2002A02B300B4006F0070009F01CB019F0271
:105EB200A002818283E200E900EA00B500B600B7E1
:105EC20000CD008301CC008A0192019401210223BA
:105ED2000224022502260227022A02B300B4006F1E
:105EE2000070009F01CB019F02A002818283F0F12A
:105EF200C66766369431373534979633309091922F
:105F0200939500010202020206060609090909091F
:105F1200090F0F0F0F0F0F15151518191919191948
:105F220019191919192324252525252525541E5605
:025F32001E004F
:00000001FF
